:0A0C8200000102020303040405054B
:030BD700012100F9
:10059A00E4F513F512F511F510F51BF51AF519F531
:1005AA0018C203C200C202C2011209447E017F00BE
:1005BA008E248F25752C01752D1275220175231C29
:1005CA00752A01752B3C752E01752F5C90E680E02B
:1005DA0030E70E852226852327852A28852B298020
:1005EA000C852A26852B27852228852329EE54E087
:1005FA0070030207157514007515807E017F008E41
:10060A00168F17C374EC9FFF74019ECF2402CF3458
:10061A0000FEE48F0F8E0EF50DF50CF50BF50AF5BD
:10062A0009F508AF0FAE0EAD0DAC0CAB0BAA0AA9BB
:10063A0009A808C3120C71502AE515250BF582E5A5
:10064A0014350AF58374CDF0E4FAF9F8E50B2401C0
:10065A00F50BEA350AF50AE93509F509E83508F529
:10066A000880C0E4F50BF50AF509F508AF0FAE0EE0
:10067A00AD0DAC0CAB0BAA0AA909A808C3120C71E0
:10068A005037E517250BF582E516350AF583E0FFA5
:10069A00E515250BF582E514350AF583EFF0E4FA42
:1006AA00F9F8E50B2401F50BEA350AF50AE93509EB
:1006BA00F509E83508F50880B385142485152574ED
:1006CA00002480FF740134FFFEC3E52D9FF52DE55C
:1006DA002C9EF52CC3E5279FF527E5269EF526C314
:1006EA00E5299FF529E5289EF528C3E5239FF523EB
:1006FA00E5229EF522C3E52B9FF52BE52A9EF52AD6
:10070A00C3E52F9FF52FE52E9EF52ED2E843D8207C
:10071A0090E668E04409F090E65CE0443DF0D2AF30
:10072A0090E680E020E105D205120B0E90E680E00B
:10073A0054F7F0538EF8C20343B64043B68053B120
:10074A00BF53B17F75892175A882758C63758AC07C
:10075A00D28CD2AF300105120300C2013003291234
:10076A000C985024C203120B9420001690E682E0E3
:10077A0030E704E020E1EF90E682E030E604E02092
:0D078A00E0E4120B3D120C9A1207E180C74B
:01079700223F
:1003000090E6B9E070030203DC1470030204852454
:10031000FE700302051A24FB70030203D614700357
:100320000203D01470030203C41470030203CA242E
:10033000056003020586120C9C400302059290E6BC
:10034000BBE024FE602C14604724FD60161460316D
:1003500024067066E52490E6B3F0E52590E6B4F057
:10036000020592E52C90E6B3F0E52D90E6B4F0029C
:100370000592E52690E6B3F0E52790E6B4F0020595
:1003800092E52890E6B3F0E52990E6B4F0020592F4
:1003900090E6BAE0FF120B69AA06A9077B01EA49B9
:1003A0004B600DEE90E6B3F0EF90E6B4F0020592EC
:1003B00090E6A0E04401F002059290E6A0E044013E
:1003C000F0020592120C5F020592120C8C0205924B
:1003D000120798020592120C4D020592120C9E40D3
:1003E0000302059290E6B8E0247F602B14603C2461
:1003F00002600302047BA200E433FF25E0FFA202B7
:10040000E4334F90E740F0E4A3F090E68AF090E602
:100410008B7402F0020592E490E740F0A3F090E6BE
:100420008AF090E68B7402F002059290E6BCE054EC
:100430007EFF7E00E0D3948040067C007D01800436
:100440007C007D00EC4EFEED4F2482F582740C3E64
:10045000F583E493FF3395E0FEEF24A1FFEE34E64D
:100460008F82F583E0540190E740F0E4A3F090E63A
:100470008AF090E68B7402F002059290E6A0E044C8
:1004800001F0020592120CA0400302059290E6B81A
:10049000E024FE601D2402600302059290E6BAE0AB
:1004A000B40105C20002059290E6A0E04401F0020A
:1004B000059290E6BAE0705990E6BCE0547EFF7E6B
:1004C00000E0D3948040067C007D0180047C007DA8
:1004D00000EC4EFEED4F2482F582740C3EF583E471
:1004E00093FF3395E0FEEF24A1FFEE34E68F82F513
:1004F00083E054FEF090E6BCE05480FF13131354E5
:100500001FFFE0540F2F90E683F0E04420F0020537
:100510009290E6A0E04401F08078120CA250739013
:10052000E6B8E024FE60202402706790E6BAE0B4EA
:100530000104D200805C90E6BAE06402605490E668
:10054000A0E04401F0804B90E6BCE0547EFF7E00CA
:10055000E0D3948040067C007D0180047C007D0017
:10056000EC4EFEED4F2482F582740C3EF583E4934D
:10057000FF3395E0FEEF24A1FFEE34E68F82F58392
:10058000E04401F0800C120CA4500790E6A0E04477
:0905900001F090E6A0E04480F0C7
:01059900223F
:03003300020C9428
:040C940053D8EF3210
:03000B00020BB92C
:100BB900C0E0C0D0758C63758AC00521E521C39456
:0E0BC90064400675210063B180D0D0D0E032C8
:100100001201000200000040B404031000000102CC
:1001100000010A0600020000004001000902200060
:10012000010100A0320904000002FF0000000705E1
:1001300002020002000705860200020009022000F8
:10014000010100A0320904000002FF0000000705C1
:10015000040240000007058802400000040309046F
:100160001003430079007000720065007300730093
:100170007C0345005A002D0055005300420020002A
:100180004600580032002000470050004900460059
:10019000200074006F0020004500780074002000EB
:1001A0004600490046004F002000450078006100ED
:1001B0006D0070006C006500200075007300690020
:1001C0006E0067002000530069006E0067006C003D
:1001D000650020005400720061006E007300610031
:0E01E0006300740069006F006E007300000081
:100BDA00421A030000411A0200C104013000411AFE
:060BEA000000411A0100A9
:1009440090E6007412F090E60274E8F0000000E40F
:1009540090E670F000000090E60174E3F0000000FF
:1009640090E61274A0F000000090E61474E0F00029
:10097400000090E6137402F000000090E615F00009
:10098400000000000090E6047480F000000074028F
:10099400F00000007404F00000007406F000000091
:1009A4007408F0000000E4F000000090E618F00085
:1009B40000007411F000000090E61A740DF00000BD
:0809C4000053B27F0000002285
:1007E100E58030E719E5307015E58030E710E53038
:0E07F100700C75300190E6017403F0000000FA
:0107FF0022D7
:020C9800D32265
:020C9A00D32263
:020C9C00D32261
:1007980090E680E030E71E90E6247402F000000046
:1007A80090E626F0000000E490E625F000000090B6
:1007B800E627F0801CE490E624F000000090E6268E
:1007C800F000000090E6257440F000000090E62755
:0907D800F090E6BAE0F532D322FC
:100C4D0090E740E532F0E490E68AF090E68B04F010
:020C5D00D322A0
:080C8C0090E6BAE0F531D32235
:100C5F0090E740E531F0E490E68AF090E68B04F0FF
:020C6F00D3228E
:020C9E00D3225F
:020CA000D3225D
:020CA200D3225B
:020CA400D32259
:100BF100C0E0C083C082D2015391EF90E65D7401E1
:080C0100F0D082D083D0E03274
:100C2100C0E0C083C0825391EF90E65D7404F0D0C0
:060C310082D083D0E03206
:100C3700C0E0C083C0825391EF90E65D7402F0D0AC
:060C470082D083D0E032F0
:100AA000C0E0C083C08290E680E030E70E85222659
:100AB000852327852A28852B29800C852A26852BA6
:100AC000278522288523295391EF90E65D7410F045
:070AD000D082D083D0E03298
:100C0900C0E0C083C082D2035391EF90E65D7408BF
:080C1900F0D082D083D0E0325C
:100AD700C0E0C083C08290E680E030E70E85222622
:100AE700852327852A28852B29800C852A26852B6F
:100AF700278522288523295391EF90E65D7420F0FE
:070B0700D082D083D0E03260
:010CA600321B
:010CA700321A
:010CA8003219
:010CA9003218
:010CAA003217
:010CAB003216
:010CAC003215
:010CAD003214
:010CAE003213
:010CAF003212
:010CB0003211
:010CB1003210
:010CB200320F
:010CB300320E
:010CB400320D
:010CB500320C
:010CB600320B
:010CB700320A
:010CB8003209
:010CB9003208
:010CBA003207
:010CBB003206
:010CBC003205
:010CBD003204
:010CBE003203
:010CBF003202
:010CC0003201
:010CC1003200
:010CC20032FF
:010CC30032FE
:010CC40032FD
:010CC50032FC
:010CC60032FB
:010CC70032FA
:010CC80032F9
:010CC90032F8
:1009CC00AD07ED30E00D908100E0901A00F0A3E04F
:1009DC0054FEF0ED30E10D909100E0901A00F0A380
:1009EC00E054FDF0ED30E20D90A100E0901A00F023
:1009FC00A3E054FBF0ED30E30D90B100E0901A0051
:070A0C00F0A3E054F7F02213
:100A1300AD07ED30E00D908000E0901A00F0A3E008
:100A23004401F0ED30E10D909000E0901A00F0A346
:100A3300E04402F0ED30E20D90A000E0901A00F0E7
:100A4300A3E04404F0ED30E30D90B000E0901A0011
:070A5300F0A3E04408F022CB
:100B3D0090E682E030E004E020E60B90E682E030C3
:100B4D00E119E030E71590E680E04401F07F147E76
:0C0B5D0000120A5A90E680E054FEF022DC
:100B0E0030050990E680E0440AF0800790E680E028
:100B1E004408F07FDC7E05120A5A90E65D74FFF001
:0F0B2E0090E65FF05391EF90E680E054F7F022ED
:020B6900A907DA
:100B6B00AE2EAF2F8F828E83A3E064037017AD017F
:100B7B0019ED7001228F828E83E07C002FFDEC3EFD
:080B8B00FEAF0580DFE4FEFF70
:010B9300223F
:100B940090E682E044C0F090E681F04387010000D3
:040BA400000000222B
:100A5A008E1C8F1D90E600E054187012E51D2401CB
:100A6A00FFE4351CC313F51CEF13F51D801590E642
:100A7A0000E05418FFBF100BE51D25E0F51DE51C2D
:100A8A0033F51CE51D151DAE1C7002151C4E6005C4
:060A9A00120BA880EE2201
:100BA8007400F58690FDA57C05A3E582458370F960
:010BB800221A
:03004300020800B0
:03005300020800A0
:10080000020BF100020C3700020C2100020C09005F
:10081000020AA000020AD700020CA600020CA700E0
:10082000020CA800020CA900020CAA00020CAB00EA
:10083000020CAC00020CAD00020CAE00020CAF00CA
:10084000020CB000020CA700020CB100020CB200B6
:10085000020CB300020CB400020CB500020CB6008E
:10086000020CB700020CA700020CA700020CA700A4
:10087000020CB800020CB900020CBA00020CBB005A
:10088000020CBC00020CBD00020CBE00020CBF003A
:10089000020CC000020CC100020CC200020CC3001A
:1008A000020CC400020CC500020CC600020CC700FA
:0808B000020CC800020CC90093
:030000000208B83B
:0C08B800787FE4F6D8FD7581320208FF5D
:100C7100EB9FF5F0EA9E42F0E99D42F0E89C45F0D9
:010C81002250
:1008C40002059AE493A3F8E493A34003F68001F2AB
:1008D40008DFF48029E493A3F85407240CC8C33335
:1008E400C4540F4420C8834004F456800146F6DF04
:1008F400E4800B0102040810204080900BD7E47EB2
:10090400019360BCA3FF543F30E509541FFEE493F8
:10091400A360010ECF54C025E060A840B8E493A3BF
:10092400FAE493A3F8E493A3C8C582C8CAC583CAEA
:10093400F0A3C8C582C8CAC583CADFE9DEE780BEA2
:010BF0000004
:00000001FF
