:0200000007fff8
:0200010007fff7
:0200020007fff6
:0200030007fff5
:0200040007fff4
:0200050007fff3
:0200060007fff2
:0200070007fff1
:0200080007fff0
:0200090007ffef
:02000a0007ffee
:02000b0007ffed
:02000c0007ffec
:02000d0007ffeb
:02000e0007ffea
:02000f0007feea
:0200100007fee9
:0200110007fee8
:0200120007fee7
:0200130007fee6
:0200140007fee5
:0200150007fee4
:0200160007fee3
:0200170007fee2
:0200180007fee1
:0200190007fde1
:02001a0007fde0
:02001b0007fddf
:02001c0007fdde
:02001d0007fddd
:02001e0007fddc
:02001f0007fddb
:0200200007fdda
:0200210007fcda
:0200220007fcd9
:0200230007fcd8
:0200240007fcd7
:0200250007fcd6
:0200260007fcd5
:0200270007fbd5
:0200280007fbd4
:0200290007fbd3
:02002a0007fbd2
:02002b0007fbd1
:02002c0007fad1
:02002d0007fad0
:02002e0007facf
:02002f0007face
:0200300007f9ce
:0200310007f9cd
:0200320007f9cc
:0200330007f9cb
:0200340007f8cb
:0200350007f8ca
:0200360007f8c9
:0200370007f8c8
:0200380007f7c8
:0200390007f7c7
:02003a0007f7c6
:02003b0007f7c5
:02003c0007f6c5
:02003d0007f6c4
:02003e0007f6c3
:02003f0007f5c3
:0200400007f5c2
:0200410007f5c1
:0200420007f5c0
:0200430007f4c0
:0200440007f4bf
:0200450007f4be
:0200460007f3be
:0200470007f3bd
:0200480007f3bc
:0200490007f2bc
:02004a0007f2bb
:02004b0007f1bb
:02004c0007f1ba
:02004d0007f1b9
:02004e0007f0b9
:02004f0007f0b8
:0200500007f0b7
:0200510007efb7
:0200520007efb6
:0200530007eeb6
:0200540007eeb5
:0200550007eeb4
:0200560007edb4
:0200570007edb3
:0200580007ecb3
:0200590007ecb2
:02005a0007ecb1
:02005b0007ebb1
:02005c0007ebb0
:02005d0007eab0
:02005e0007eaaf
:02005f0007e9af
:0200600007e9ae
:0200610007e8ae
:0200620007e8ad
:0200630007e7ad
:0200640007e7ac
:0200650007e6ac
:0200660007e6ab
:0200670007e6aa
:0200680007e5aa
:0200690007e5a9
:02006a0007e4a9
:02006b0007e3a9
:02006c0007e3a8
:02006d0007e2a8
:02006e0007e2a7
:02006f0007e1a7
:0200700007e1a6
:0200710007e0a6
:0200720007e0a5
:0200730007dfa5
:0200740007dfa4
:0200750007dea4
:0200760007dea3
:0200770007dda3
:0200780007dca3
:0200790007dca2
:02007a0007dba2
:02007b0007dba1
:02007c0007daa1
:02007d0007d9a1
:02007e0007d9a0
:02007f0007d8a0
:0200800007d89f
:0200810007d79f
:0200820007d69f
:0200830007d69e
:0200840007d59e
:0200850007d59d
:0200860007d49d
:0200870007d39d
:0200880007d39c
:0200890007d29c
:02008a0007d19c
:02008b0007d19b
:02008c0007d09b
:02008d0007cf9b
:02008e0007cf9a
:02008f0007ce9a
:0200900007cd9a
:0200910007cd99
:0200920007cc99
:0200930007cb99
:0200940007ca99
:0200950007ca98
:0200960007c998
:0200970007c898
:0200980007c897
:0200990007c797
:02009a0007c697
:02009b0007c597
:02009c0007c596
:02009d0007c496
:02009e0007c396
:02009f0007c296
:0200a00007c295
:0200a10007c195
:0200a20007c095
:0200a30007bf95
:0200a40007bf94
:0200a50007be94
:0200a60007bd94
:0200a70007bc94
:0200a80007bb94
:0200a90007bb93
:0200aa0007ba93
:0200ab0007b993
:0200ac0007b893
:0200ad0007b793
:0200ae0007b792
:0200af0007b692
:0200b00007b592
:0200b10007b492
:0200b20007b392
:0200b30007b292
:0200b40007b192
:0200b50007b191
:0200b60007b091
:0200b70007af91
:0200b80007ae91
:0200b90007ad91
:0200ba0007ac91
:0200bb0007ab91
:0200bc0007aa91
:0200bd0007aa90
:0200be0007a990
:0200bf0007a890
:0200c00007a790
:0200c10007a690
:0200c20007a590
:0200c30007a490
:0200c40007a390
:0200c50007a290
:0200c60007a190
:0200c70007a090
:0200c800079f90
:0200c900079e90
:0200ca00079e8f
:0200cb00079d8f
:0200cc00079c8f
:0200cd00079b8f
:0200ce00079a8f
:0200cf0007998f
:0200d00007988f
:0200d10007978f
:0200d20007968f
:0200d30007958f
:0200d40007948f
:0200d50007938f
:0200d60007928f
:0200d70007918f
:0200d80007908f
:0200d900078f8f
:0200da00078e8f
:0200db00078d8f
:0200dc00078c8f
:0200dd00078a90
:0200de00078990
:0200df00078890
:0200e000078790
:0200e100078690
:0200e200078590
:0200e300078490
:0200e400078390
:0200e500078290
:0200e600078190
:0200e700078090
:0200e800077f90
:0200e900077e90
:0200ea00077d90
:0200eb00077b91
:0200ec00077a91
:0200ed00077991
:0200ee00077891
:0200ef00077791
:0200f000077691
:0200f100077591
:0200f200077491
:0200f300077292
:0200f400077192
:0200f500077092
:0200f600076f92
:0200f700076e92
:0200f800076d92
:0200f900076b93
:0200fa00076a93
:0200fb00076993
:0200fc00076893
:0200fd00076793
:0200fe00076693
:0200ff00076494
:02010000076393
:02010100076293
:02010200076193
:02010300076093
:02010400075e94
:02010500075d94
:02010600075c94
:02010700075b94
:02010800075995
:02010900075895
:02010a00075795
:02010b00075695
:02010c00075496
:02010d00075396
:02010e00075296
:02010f00075196
:02011000074f97
:02011100074e97
:02011200074d97
:02011300074c97
:02011400074a98
:02011500074998
:02011600074898
:02011700074699
:02011800074599
:02011900074499
:02011a0007429a
:02011b0007419a
:02011c0007409a
:02011d00073e9b
:02011e00073d9b
:02011f00073c9b
:02012000073a9c
:0201210007399c
:0201220007389c
:0201230007369d
:0201240007359d
:0201250007349d
:0201260007329e
:0201270007319e
:0201280007309e
:02012900072e9f
:02012a00072d9f
:02012b00072ba0
:02012c00072aa0
:02012d000729a0
:02012e000727a1
:02012f000726a1
:020130000724a2
:020131000723a2
:020132000722a2
:020133000720a3
:02013400071fa3
:02013500071da4
:02013600071ca4
:02013700071aa5
:020138000719a5
:020139000718a5
:02013a000716a6
:02013b000715a6
:02013c000713a7
:02013d000712a7
:02013e000710a8
:02013f00070fa8
:02014000070da9
:02014100070ca9
:02014200070aaa
:020143000709aa
:020144000707ab
:020145000706ab
:020146000704ac
:020147000703ac
:020148000701ad
:020149000700ad
:02014a0006feaf
:02014b0006fdaf
:02014c0006fbb0
:02014d0006fab0
:02014e0006f8b1
:02014f0006f7b1
:0201500006f5b2
:0201510006f4b2
:0201520006f2b3
:0201530006f0b4
:0201540006efb4
:0201550006edb5
:0201560006ecb5
:0201570006eab6
:0201580006e9b6
:0201590006e7b7
:02015a0006e5b8
:02015b0006e4b8
:02015c0006e2b9
:02015d0006e1b9
:02015e0006dfba
:02015f0006ddbb
:0201600006dcbb
:0201610006dabc
:0201620006d9bc
:0201630006d7bd
:0201640006d5be
:0201650006d4be
:0201660006d2bf
:0201670006d0c0
:0201680006cfc0
:0201690006cdc1
:02016a0006cbc2
:02016b0006cac2
:02016c0006c8c3
:02016d0006c6c4
:02016e0006c5c4
:02016f0006c3c5
:0201700006c1c6
:0201710006c0c6
:0201720006bec7
:0201730006bcc8
:0201740006bbc8
:0201750006b9c9
:0201760006b7ca
:0201770006b6ca
:0201780006b4cb
:0201790006b2cc
:02017a0006b0cd
:02017b0006afcd
:02017c0006adce
:02017d0006abcf
:02017e0006a9d0
:02017f0006a8d0
:0201800006a6d1
:0201810006a4d2
:0201820006a3d2
:0201830006a1d3
:02018400069fd4
:02018500069dd5
:02018600069bd6
:02018700069ad6
:020188000698d7
:020189000696d8
:02018a000694d9
:02018b000693d9
:02018c000691da
:02018d00068fdb
:02018e00068ddc
:02018f00068bdd
:02019000068add
:020191000688de
:020192000686df
:020193000684e0
:020194000682e1
:020195000681e1
:02019600067fe2
:02019700067de3
:02019800067be4
:020199000679e5
:02019a000677e6
:02019b000675e7
:02019c000674e7
:02019d000672e8
:02019e000670e9
:02019f00066eea
:0201a000066ceb
:0201a100066aec
:0201a2000668ed
:0201a3000667ed
:0201a4000665ee
:0201a5000663ef
:0201a6000661f0
:0201a700065ff1
:0201a800065df2
:0201a900065bf3
:0201aa000659f4
:0201ab000657f5
:0201ac000655f6
:0201ad000654f6
:0201ae000652f7
:0201af000650f8
:0201b000064ef9
:0201b100064cfa
:0201b200064afb
:0201b3000648fc
:0201b4000646fd
:0201b5000644fe
:0201b6000642ff
:0201b700064000
:0201b800063e01
:0201b900063c02
:0201ba00063a03
:0201bb00063804
:0201bc00063605
:0201bd00063406
:0201be00063207
:0201bf00063008
:0201c000062e09
:0201c100062c0a
:0201c200062a0b
:0201c30006280c
:0201c40006260d
:0201c50006240e
:0201c60006220f
:0201c700062010
:0201c800061e11
:0201c900061c12
:0201ca00061a13
:0201cb00061814
:0201cc00061615
:0201cd00061416
:0201ce00061217
:0201cf00061018
:0201d000060e19
:0201d100060c1a
:0201d200060a1b
:0201d30006081c
:0201d40006061d
:0201d50006041e
:0201d60006021f
:0201d700060020
:0201d80005fd23
:0201d90005fb24
:0201da0005f925
:0201db0005f726
:0201dc0005f527
:0201dd0005f328
:0201de0005f129
:0201df0005ef2a
:0201e00005ed2b
:0201e10005eb2c
:0201e20005e92d
:0201e30005e62f
:0201e40005e430
:0201e50005e231
:0201e60005e032
:0201e70005de33
:0201e80005dc34
:0201e90005da35
:0201ea0005d737
:0201eb0005d538
:0201ec0005d339
:0201ed0005d13a
:0201ee0005cf3b
:0201ef0005cd3c
:0201f00005cb3d
:0201f10005c83f
:0201f20005c640
:0201f30005c441
:0201f40005c242
:0201f50005c043
:0201f60005bd45
:0201f70005bb46
:0201f80005b947
:0201f90005b748
:0201fa0005b549
:0201fb0005b34a
:0201fc0005b04c
:0201fd0005ae4d
:0201fe0005ac4e
:0201ff0005aa4f
:0202000005a750
:0202010005a551
:0202020005a352
:0202030005a153
:02020400059f54
:02020500059c56
:02020600059a57
:02020700059858
:02020800059659
:0202090005935b
:02020a0005915c
:02020b00058f5d
:02020c00058d5e
:02020d00058a60
:02020e00058861
:02020f00058662
:02021000058364
:02021100058165
:02021200057f66
:02021300057d67
:02021400057a69
:0202150005786a
:0202160005766b
:0202170005736d
:0202180005716e
:02021900056f6f
:02021a00056d70
:02021b00056a72
:02021c00056873
:02021d00056674
:02021e00056376
:02021f00056177
:02022000055f78
:02022100055c7a
:02022200055a7b
:0202230005587c
:0202240005557e
:0202250005537f
:02022600055180
:02022700054e82
:02022800054c83
:02022900054a84
:02022a00054786
:02022b00054587
:02022c00054388
:02022d0005408a
:02022e00053e8b
:02022f00053b8d
:0202300005398e
:0202310005378f
:02023200053491
:02023300053292
:02023400053093
:02023500052d95
:02023600052b96
:02023700052898
:02023800052699
:0202390005249a
:02023a0005219c
:02023b00051f9d
:02023c00051c9f
:02023d00051aa0
:02023e000517a2
:02023f000515a3
:020240000513a4
:020241000510a6
:02024200050ea7
:02024300050ba9
:020244000509aa
:020245000506ac
:020246000504ad
:020247000502ae
:0202480004ffb1
:0202490004fdb2
:02024a0004fab4
:02024b0004f8b5
:02024c0004f5b7
:02024d0004f3b8
:02024e0004f0ba
:02024f0004eebb
:0202500004ebbd
:0202510004e9be
:0202520004e6c0
:0202530004e4c1
:0202540004e1c3
:0202550004dfc4
:0202560004dcc6
:0202570004dac7
:0202580004d7c9
:0202590004d5ca
:02025a0004d2cc
:02025b0004d0cd
:02025c0004cdcf
:02025d0004cbd0
:02025e0004c8d2
:02025f0004c6d3
:0202600004c3d5
:0202610004c1d6
:0202620004bed8
:0202630004bcd9
:0202640004b9db
:0202650004b7dc
:0202660004b4de
:0202670004b2df
:0202680004afe1
:0202690004ade2
:02026a0004aae4
:02026b0004a7e6
:02026c0004a5e7
:02026d0004a2e9
:02026e0004a0ea
:02026f00049dec
:02027000049bed
:020271000498ef
:020272000496f0
:020273000493f2
:020274000490f4
:02027500048ef5
:02027600048bf7
:020277000489f8
:020278000486fa
:020279000483fc
:02027a000481fd
:02027b00047eff
:02027c00047c00
:02027d00047902
:02027e00047604
:02027f00047405
:02028000047107
:02028100046f08
:02028200046c0a
:0202830004690c
:0202840004670d
:0202850004640f
:02028600046210
:02028700045f12
:02028800045c14
:02028900045a15
:02028a00045717
:02028b00045419
:02028c0004521a
:02028d00044f1c
:02028e00044c1e
:02028f00044a1f
:02029000044721
:02029100044423
:02029200044224
:02029300043f26
:02029400043d27
:02029500043a29
:0202960004372b
:0202970004352c
:0202980004322e
:02029900042f30
:02029a00042c32
:02029b00042a33
:02029c00042735
:02029d00042437
:02029e00042238
:02029f00041f3a
:0202a000041c3c
:0202a100041a3d
:0202a20004173f
:0202a300041441
:0202a400041242
:0202a500040f44
:0202a600040c46
:0202a700040948
:0202a800040749
:0202a90004044b
:0202aa0004014d
:0202ab0003ff4f
:0202ac0003fc51
:0202ad0003f953
:0202ae0003f655
:0202af0003f456
:0202b00003f158
:0202b10003ee5a
:0202b20003eb5c
:0202b30003e95d
:0202b40003e65f
:0202b50003e361
:0202b60003e162
:0202b70003de64
:0202b80003db66
:0202b90003d868
:0202ba0003d669
:0202bb0003d36b
:0202bc0003d06d
:0202bd0003cd6f
:0202be0003ca71
:0202bf0003c872
:0202c00003c574
:0202c10003c276
:0202c20003bf78
:0202c30003bd79
:0202c40003ba7b
:0202c50003b77d
:0202c60003b47f
:0202c70003b280
:0202c80003af82
:0202c90003ac84
:0202ca0003a986
:0202cb0003a688
:0202cc0003a489
:0202cd0003a18b
:0202ce00039e8d
:0202cf00039b8f
:0202d000039891
:0202d100039692
:0202d200039394
:0202d300039096
:0202d400038d98
:0202d500038a9a
:0202d60003879c
:0202d70003859d
:0202d80003829f
:0202d900037fa1
:0202da00037ca3
:0202db000379a5
:0202dc000377a6
:0202dd000374a8
:0202de000371aa
:0202df00036eac
:0202e000036bae
:0202e1000368b0
:0202e2000366b1
:0202e3000363b3
:0202e4000360b5
:0202e500035db7
:0202e600035ab9
:0202e7000357bb
:0202e8000354bd
:0202e9000352be
:0202ea00034fc0
:0202eb00034cc2
:0202ec000349c4
:0202ed000346c6
:0202ee000343c8
:0202ef000340ca
:0202f000033ecb
:0202f100033bcd
:0202f2000338cf
:0202f3000335d1
:0202f4000332d3
:0202f500032fd5
:0202f600032cd7
:0202f7000329d9
:0202f8000327da
:0202f9000324dc
:0202fa000321de
:0202fb00031ee0
:0202fc00031be2
:0202fd000318e4
:0202fe000315e6
:0202ff000312e8
:02030000030fe9
:02030100030ceb
:02030200030aec
:020303000307ee
:020304000304f0
:020305000301f2
:0203060002fef5
:0203070002fbf7
:0203080002f8f9
:0203090002f5fb
:02030a0002f2fd
:02030b0002efff
:02030c0002ec01
:02030d0002e903
:02030e0002e704
:02030f0002e406
:0203100002e108
:0203110002de0a
:0203120002db0c
:0203130002d80e
:0203140002d510
:0203150002d212
:0203160002cf14
:0203170002cc16
:0203180002c918
:0203190002c61a
:02031a0002c31c
:02031b0002c01e
:02031c0002bd20
:02031d0002ba22
:02031e0002b823
:02031f0002b525
:0203200002b227
:0203210002af29
:0203220002ac2b
:0203230002a92d
:0203240002a62f
:0203250002a331
:0203260002a033
:02032700029d35
:02032800029a37
:02032900029739
:02032a0002943b
:02032b0002913d
:02032c00028e3f
:02032d00028b41
:02032e00028843
:02032f00028545
:02033000028247
:02033100027f49
:02033200027c4b
:0203330002794d
:0203340002764f
:02033500027351
:02033600027053
:02033700026d55
:02033800026a57
:02033900026759
:02033a0002645b
:02033b0002615d
:02033c00025e5f
:02033d00025b61
:02033e00025863
:02033f00025565
:02034000025267
:02034100024f69
:02034200024c6b
:0203430002496d
:0203440002466f
:02034500024371
:02034600024073
:02034700023d75
:02034800023a77
:02034900023779
:02034a0002347b
:02034b0002317d
:02034c00022e7f
:02034d00022b81
:02034e00022883
:02034f00022585
:02035000022287
:02035100021f89
:02035200021c8b
:0203530002198d
:0203540002168f
:02035500021391
:02035600021093
:02035700020d95
:02035800020a97
:02035900020799
:02035a0002049b
:02035b0002019d
:02035c0001fea0
:02035d0001fba2
:02035e0001f7a5
:02035f0001f4a7
:0203600001f1a9
:0203610001eeab
:0203620001ebad
:0203630001e8af
:0203640001e5b1
:0203650001e2b3
:0203660001dfb5
:0203670001dcb7
:0203680001d9b9
:0203690001d6bb
:02036a0001d3bd
:02036b0001d0bf
:02036c0001cdc1
:02036d0001cac3
:02036e0001c7c5
:02036f0001c4c7
:0203700001c1c9
:0203710001bdcc
:0203720001bace
:0203730001b7d0
:0203740001b4d2
:0203750001b1d4
:0203760001aed6
:0203770001abd8
:0203780001a8da
:0203790001a5dc
:02037a0001a2de
:02037b00019fe0
:02037c00019ce2
:02037d000199e4
:02037e000196e6
:02037f000192e9
:02038000018feb
:02038100018ced
:020382000189ef
:020383000186f1
:020384000183f3
:020385000180f5
:02038600017df7
:02038700017af9
:020388000177fb
:020389000174fd
:02038a000171ff
:02038b00016d02
:02038c00016a04
:02038d00016706
:02038e00016408
:02038f0001610a
:02039000015e0c
:02039100015b0e
:02039200015810
:02039300015512
:02039400015214
:02039500014e17
:02039600014b19
:0203970001481b
:0203980001451d
:0203990001421f
:02039a00013f21
:02039b00013c23
:02039c00013925
:02039d00013627
:02039e00013329
:02039f00012f2c
:0203a000012c2e
:0203a100012930
:0203a200012632
:0203a300012334
:0203a400012036
:0203a500011d38
:0203a600011a3a
:0203a70001173c
:0203a80001133f
:0203a900011041
:0203aa00010d43
:0203ab00010a45
:0203ac00010747
:0203ad00010449
:0203ae0001014b
:0203af0000fe4e
:0203b00000fb50
:0203b10000f753
:0203b20000f455
:0203b30000f157
:0203b40000ee59
:0203b50000eb5b
:0203b60000e85d
:0203b70000e55f
:0203b80000e261
:0203b90000df63
:0203ba0000db66
:0203bb0000d868
:0203bc0000d56a
:0203bd0000d26c
:0203be0000cf6e
:0203bf0000cc70
:0203c00000c972
:0203c10000c674
:0203c20000c277
:0203c30000bf79
:0203c40000bc7b
:0203c50000b97d
:0203c60000b67f
:0203c70000b381
:0203c80000b083
:0203c90000ac86
:0203ca0000a988
:0203cb0000a68a
:0203cc0000a38c
:0203cd0000a08e
:0203ce00009d90
:0203cf00009a92
:0203d000009794
:0203d100009397
:0203d200009099
:0203d300008d9b
:0203d400008a9d
:0203d50000879f
:0203d6000084a1
:0203d7000081a3
:0203d800007ea5
:0203d900007aa8
:0203da000077aa
:0203db000074ac
:0203dc000071ae
:0203dd00006eb0
:0203de00006bb2
:0203df000068b4
:0203e0000064b7
:0203e1000061b9
:0203e200005ebb
:0203e300005bbd
:0203e4000058bf
:0203e5000055c1
:0203e6000052c3
:0203e700004ec6
:0203e800004bc8
:0203e9000048ca
:0203ea000045cc
:0203eb000042ce
:0203ec00003fd0
:0203ed00003cd2
:0203ee000039d4
:0203ef000035d7
:0203f0000032d9
:0203f100002fdb
:0203f200002cdd
:0203f3000029df
:0203f4000026e1
:0203f5000023e3
:0203f600001fe6
:0203f700001ce8
:0203f8000019ea
:0203f9000016ec
:0203fa000013ee
:0203fb000010f0
:0203fc00000df2
:0203fd000009f5
:0203fe000006f7
:0203ff000003f9
:020400000000fa
:020401000ffded
:020402000ffaef
:020403000ff7f1
:020404000ff3f4
:020405000ff0f6
:020406000fedf8
:020407000feafa
:020408000fe7fc
:020409000fe4fe
:02040a000fe100
:02040b000fdd03
:02040c000fda05
:02040d000fd707
:02040e000fd409
:02040f000fd10b
:020410000fce0d
:020411000fcb0f
:020412000fc712
:020413000fc414
:020414000fc116
:020415000fbe18
:020416000fbb1a
:020417000fb81c
:020418000fb51e
:020419000fb220
:02041a000fae23
:02041b000fab25
:02041c000fa827
:02041d000fa529
:02041e000fa22b
:02041f000f9f2d
:020420000f9c2f
:020421000f9832
:020422000f9534
:020423000f9236
:020424000f8f38
:020425000f8c3a
:020426000f893c
:020427000f863e
:020428000f8241
:020429000f7f43
:02042a000f7c45
:02042b000f7947
:02042c000f7649
:02042d000f734b
:02042e000f704d
:02042f000f6d4f
:020430000f6952
:020431000f6654
:020432000f6356
:020433000f6058
:020434000f5d5a
:020435000f5a5c
:020436000f575e
:020437000f5460
:020438000f5063
:020439000f4d65
:02043a000f4a67
:02043b000f4769
:02043c000f446b
:02043d000f416d
:02043e000f3e6f
:02043f000f3a72
:020440000f3774
:020441000f3476
:020442000f3178
:020443000f2e7a
:020444000f2b7c
:020445000f287e
:020446000f2580
:020447000f2183
:020448000f1e85
:020449000f1b87
:02044a000f1889
:02044b000f158b
:02044c000f128d
:02044d000f0f8f
:02044e000f0c91
:02044f000f0993
:020450000f0596
:020451000f0298
:020452000eff9b
:020453000efc9d
:020454000ef99f
:020455000ef6a1
:020456000ef3a3
:020457000ef0a5
:020458000eeda7
:020459000ee9aa
:02045a000ee6ac
:02045b000ee3ae
:02045c000ee0b0
:02045d000eddb2
:02045e000edab4
:02045f000ed7b6
:020460000ed4b8
:020461000ed1ba
:020462000ecdbd
:020463000ecabf
:020464000ec7c1
:020465000ec4c3
:020466000ec1c5
:020467000ebec7
:020468000ebbc9
:020469000eb8cb
:02046a000eb5cd
:02046b000eb2cf
:02046c000eaed2
:02046d000eabd4
:02046e000ea8d6
:02046f000ea5d8
:020470000ea2da
:020471000e9fdc
:020472000e9cde
:020473000e99e0
:020474000e96e2
:020475000e93e4
:020476000e8fe7
:020477000e8ce9
:020478000e89eb
:020479000e86ed
:02047a000e83ef
:02047b000e80f1
:02047c000e7df3
:02047d000e7af5
:02047e000e77f7
:02047f000e74f9
:020480000e71fb
:020481000e6efd
:020482000e6a00
:020483000e6702
:020484000e6404
:020485000e6106
:020486000e5e08
:020487000e5b0a
:020488000e580c
:020489000e550e
:02048a000e5210
:02048b000e4f12
:02048c000e4c14
:02048d000e4916
:02048e000e4618
:02048f000e431a
:020490000e3f1d
:020491000e3c1f
:020492000e3921
:020493000e3623
:020494000e3325
:020495000e3027
:020496000e2d29
:020497000e2a2b
:020498000e272d
:020499000e242f
:02049a000e2131
:02049b000e1e33
:02049c000e1b35
:02049d000e1837
:02049e000e1539
:02049f000e123b
:0204a0000e0f3d
:0204a1000e0c3f
:0204a2000e0941
:0204a3000e0544
:0204a4000e0246
:0204a5000dff49
:0204a6000dfc4b
:0204a7000df94d
:0204a8000df64f
:0204a9000df351
:0204aa000df053
:0204ab000ded55
:0204ac000dea57
:0204ad000de759
:0204ae000de45b
:0204af000de15d
:0204b0000dde5f
:0204b1000ddb61
:0204b2000dd863
:0204b3000dd565
:0204b4000dd267
:0204b5000dcf69
:0204b6000dcc6b
:0204b7000dc96d
:0204b8000dc66f
:0204b9000dc371
:0204ba000dc073
:0204bb000dbd75
:0204bc000dba77
:0204bd000db779
:0204be000db47b
:0204bf000db17d
:0204c0000dae7f
:0204c1000dab81
:0204c2000da883
:0204c3000da585
:0204c4000da287
:0204c5000d9f89
:0204c6000d9c8b
:0204c7000d998d
:0204c8000d968f
:0204c9000d9391
:0204ca000d9093
:0204cb000d8d95
:0204cc000d8a97
:0204cd000d8799
:0204ce000d849b
:0204cf000d819d
:0204d0000d7e9f
:0204d1000d7ba1
:0204d2000d78a3
:0204d3000d75a5
:0204d4000d72a7
:0204d5000d6fa9
:0204d6000d6cab
:0204d7000d69ad
:0204d8000d66af
:0204d9000d63b1
:0204da000d60b3
:0204db000d5db5
:0204dc000d5ab7
:0204dd000d57b9
:0204de000d54bb
:0204df000d51bd
:0204e0000d4ebf
:0204e1000d4bc1
:0204e2000d48c3
:0204e3000d46c4
:0204e4000d43c6
:0204e5000d40c8
:0204e6000d3dca
:0204e7000d3acc
:0204e8000d37ce
:0204e9000d34d0
:0204ea000d31d2
:0204eb000d2ed4
:0204ec000d2bd6
:0204ed000d28d8
:0204ee000d25da
:0204ef000d22dc
:0204f0000d1fde
:0204f1000d1ce0
:0204f2000d19e2
:0204f3000d17e3
:0204f4000d14e5
:0204f5000d11e7
:0204f6000d0ee9
:0204f7000d0beb
:0204f8000d08ed
:0204f9000d05ef
:0204fa000d02f1
:0204fb000cfff4
:0204fc000cfcf6
:0204fd000cf9f8
:0204fe000cf6fa
:0204ff000cf4fb
:020500000cf1fc
:020501000ceefe
:020502000ceb00
:020503000ce802
:020504000ce504
:020505000ce206
:020506000cdf08
:020507000cdc0a
:020508000cd90c
:020509000cd70d
:02050a000cd40f
:02050b000cd111
:02050c000cce13
:02050d000ccb15
:02050e000cc817
:02050f000cc519
:020510000cc21b
:020511000cc01c
:020512000cbd1e
:020513000cba20
:020514000cb722
:020515000cb424
:020516000cb126
:020517000cae28
:020518000cac29
:020519000ca92b
:02051a000ca62d
:02051b000ca32f
:02051c000ca031
:02051d000c9d33
:02051e000c9a35
:02051f000c9836
:020520000c9538
:020521000c923a
:020522000c8f3c
:020523000c8c3e
:020524000c8940
:020525000c8741
:020526000c8443
:020527000c8145
:020528000c7e47
:020529000c7b49
:02052a000c794a
:02052b000c764c
:02052c000c734e
:02052d000c7050
:02052e000c6d52
:02052f000c6a54
:020530000c6855
:020531000c6557
:020532000c6259
:020533000c5f5b
:020534000c5c5d
:020535000c5a5e
:020536000c5760
:020537000c5462
:020538000c5164
:020539000c4e66
:02053a000c4c67
:02053b000c4969
:02053c000c466b
:02053d000c436d
:02053e000c416e
:02053f000c3e70
:020540000c3b72
:020541000c3874
:020542000c3675
:020543000c3377
:020544000c3079
:020545000c2d7b
:020546000c2a7d
:020547000c287e
:020548000c2580
:020549000c2282
:02054a000c1f84
:02054b000c1d85
:02054c000c1a87
:02054d000c1789
:02054e000c158a
:02054f000c128c
:020550000c0f8e
:020551000c0c90
:020552000c0a91
:020553000c0793
:020554000c0495
:020555000c0197
:020556000bff99
:020557000bfc9b
:020558000bf99d
:020559000bf79e
:02055a000bf4a0
:02055b000bf1a2
:02055c000beea4
:02055d000beca5
:02055e000be9a7
:02055f000be6a9
:020560000be4aa
:020561000be1ac
:020562000bdeae
:020563000bdcaf
:020564000bd9b1
:020565000bd6b3
:020566000bd4b4
:020567000bd1b6
:020568000bceb8
:020569000bcbba
:02056a000bc9bb
:02056b000bc6bd
:02056c000bc3bf
:02056d000bc1c0
:02056e000bbec2
:02056f000bbcc3
:020570000bb9c5
:020571000bb6c7
:020572000bb4c8
:020573000bb1ca
:020574000baecc
:020575000baccd
:020576000ba9cf
:020577000ba6d1
:020578000ba4d2
:020579000ba1d4
:02057a000b9ed6
:02057b000b9cd7
:02057c000b99d9
:02057d000b97da
:02057e000b94dc
:02057f000b91de
:020580000b8fdf
:020581000b8ce1
:020582000b8ae2
:020583000b87e4
:020584000b84e6
:020585000b82e7
:020586000b7fe9
:020587000b7dea
:020588000b7aec
:020589000b77ee
:02058a000b75ef
:02058b000b72f1
:02058c000b70f2
:02058d000b6df4
:02058e000b6af6
:02058f000b68f7
:020590000b65f9
:020591000b63fa
:020592000b60fc
:020593000b5efd
:020594000b5bff
:020595000b5900
:020596000b5602
:020597000b5304
:020598000b5105
:020599000b4e07
:02059a000b4c08
:02059b000b490a
:02059c000b470b
:02059d000b440d
:02059e000b420e
:02059f000b3f10
:0205a0000b3d11
:0205a1000b3a13
:0205a2000b3814
:0205a3000b3516
:0205a4000b3317
:0205a5000b3019
:0205a6000b2e1a
:0205a7000b2b1c
:0205a8000b291d
:0205a9000b261f
:0205aa000b2420
:0205ab000b2122
:0205ac000b1f23
:0205ad000b1c25
:0205ae000b1a26
:0205af000b1728
:0205b0000b1529
:0205b1000b122b
:0205b2000b102c
:0205b3000b0d2e
:0205b4000b0b2f
:0205b5000b0831
:0205b6000b0632
:0205b7000b0334
:0205b8000b0135
:0205b9000afe38
:0205ba000afc39
:0205bb000afa3a
:0205bc000af73c
:0205bd000af53d
:0205be000af23f
:0205bf000af040
:0205c0000aed42
:0205c1000aeb43
:0205c2000ae944
:0205c3000ae646
:0205c4000ae447
:0205c5000ae149
:0205c6000adf4a
:0205c7000adc4c
:0205c8000ada4d
:0205c9000ad84e
:0205ca000ad550
:0205cb000ad351
:0205cc000ad053
:0205cd000ace54
:0205ce000acc55
:0205cf000ac957
:0205d0000ac758
:0205d1000ac559
:0205d2000ac25b
:0205d3000ac05c
:0205d4000abd5e
:0205d5000abb5f
:0205d6000ab960
:0205d7000ab662
:0205d8000ab463
:0205d9000ab264
:0205da000aaf66
:0205db000aad67
:0205dc000aab68
:0205dd000aa86a
:0205de000aa66b
:0205df000aa46c
:0205e0000aa16e
:0205e1000a9f6f
:0205e2000a9d70
:0205e3000a9a72
:0205e4000a9873
:0205e5000a9674
:0205e6000a9376
:0205e7000a9177
:0205e8000a8f78
:0205e9000a8d79
:0205ea000a8a7b
:0205eb000a887c
:0205ec000a867d
:0205ed000a837f
:0205ee000a8180
:0205ef000a7f81
:0205f0000a7d82
:0205f1000a7a84
:0205f2000a7885
:0205f3000a7686
:0205f4000a7388
:0205f5000a7189
:0205f6000a6f8a
:0205f7000a6d8b
:0205f8000a6a8d
:0205f9000a688e
:0205fa000a668f
:0205fb000a6490
:0205fc000a6192
:0205fd000a5f93
:0205fe000a5d94
:0205ff000a5b95
:020600000a5995
:020601000a5697
:020602000a5498
:020603000a5299
:020604000a509a
:020605000a4d9c
:020606000a4b9d
:020607000a499e
:020608000a479f
:020609000a45a0
:02060a000a43a1
:02060b000a40a3
:02060c000a3ea4
:02060d000a3ca5
:02060e000a3aa6
:02060f000a38a7
:020610000a35a9
:020611000a33aa
:020612000a31ab
:020613000a2fac
:020614000a2dad
:020615000a2bae
:020616000a29af
:020617000a26b1
:020618000a24b2
:020619000a22b3
:02061a000a20b4
:02061b000a1eb5
:02061c000a1cb6
:02061d000a1ab7
:02061e000a17b9
:02061f000a15ba
:020620000a13bb
:020621000a11bc
:020622000a0fbd
:020623000a0dbe
:020624000a0bbf
:020625000a09c0
:020626000a07c1
:020627000a05c2
:020628000a03c3
:020629000a00c5
:02062a0009fec7
:02062b0009fcc8
:02062c0009fac9
:02062d0009f8ca
:02062e0009f6cb
:02062f0009f4cc
:0206300009f2cd
:0206310009f0ce
:0206320009eecf
:0206330009ecd0
:0206340009ead1
:0206350009e8d2
:0206360009e6d3
:0206370009e4d4
:0206380009e2d5
:0206390009e0d6
:02063a0009ded7
:02063b0009dcd8
:02063c0009dad9
:02063d0009d8da
:02063e0009d6db
:02063f0009d4dc
:0206400009d2dd
:0206410009d0de
:0206420009cedf
:0206430009cce0
:0206440009cae1
:0206450009c8e2
:0206460009c6e3
:0206470009c4e4
:0206480009c2e5
:0206490009c0e6
:02064a0009bee7
:02064b0009bce8
:02064c0009bae9
:02064d0009b8ea
:02064e0009b6eb
:02064f0009b4ec
:0206500009b2ed
:0206510009b0ee
:0206520009aeef
:0206530009acf0
:0206540009abf0
:0206550009a9f1
:0206560009a7f2
:0206570009a5f3
:0206580009a3f4
:0206590009a1f5
:02065a00099ff6
:02065b00099df7
:02065c00099bf8
:02065d000999f9
:02065e000998f9
:02065f000996fa
:020660000994fb
:020661000992fc
:020662000990fd
:02066300098efe
:02066400098cff
:02066500098bff
:02066600098900
:02066700098701
:02066800098502
:02066900098303
:02066a00098104
:02066b00097f05
:02066c00097e05
:02066d00097c06
:02066e00097a07
:02066f00097808
:02067000097609
:02067100097509
:0206720009730a
:0206730009710b
:02067400096f0c
:02067500096d0d
:02067600096c0d
:02067700096a0e
:0206780009680f
:02067900096610
:02067a00096510
:02067b00096311
:02067c00096112
:02067d00095f13
:02067e00095d14
:02067f00095c14
:02068000095a15
:02068100095816
:02068200095716
:02068300095517
:02068400095318
:02068500095119
:02068600095019
:02068700094e1a
:02068800094c1b
:02068900094a1c
:02068a0009491c
:02068b0009471d
:02068c0009451e
:02068d0009441e
:02068e0009421f
:02068f00094020
:02069000093f20
:02069100093d21
:02069200093b22
:02069300093a22
:02069400093823
:02069500093624
:02069600093524
:02069700093325
:02069800093126
:02069900093026
:02069a00092e27
:02069b00092c28
:02069c00092b28
:02069d00092929
:02069e0009272a
:02069f0009262a
:0206a00009242b
:0206a10009232b
:0206a20009212c
:0206a300091f2d
:0206a400091e2d
:0206a500091c2e
:0206a600091b2e
:0206a70009192f
:0206a800091730
:0206a900091630
:0206aa00091431
:0206ab00091331
:0206ac00091132
:0206ad00091032
:0206ae00090e33
:0206af00090c34
:0206b000090b34
:0206b100090935
:0206b200090835
:0206b300090636
:0206b400090536
:0206b500090337
:0206b600090237
:0206b700090038
:0206b80008ff39
:0206b90008fd3a
:0206ba0008fc3a
:0206bb0008fa3b
:0206bc0008f93b
:0206bd0008f73c
:0206be0008f63c
:0206bf0008f43d
:0206c00008f33d
:0206c10008f13e
:0206c20008f03e
:0206c30008ee3f
:0206c40008ed3f
:0206c50008eb40
:0206c60008ea40
:0206c70008e841
:0206c80008e741
:0206c90008e641
:0206ca0008e442
:0206cb0008e342
:0206cc0008e143
:0206cd0008e043
:0206ce0008de44
:0206cf0008dd44
:0206d00008dc44
:0206d10008da45
:0206d20008d945
:0206d30008d746
:0206d40008d646
:0206d50008d546
:0206d60008d347
:0206d70008d247
:0206d80008d048
:0206d90008cf48
:0206da0008ce48
:0206db0008cc49
:0206dc0008cb49
:0206dd0008ca49
:0206de0008c84a
:0206df0008c74a
:0206e00008c64a
:0206e10008c44b
:0206e20008c34b
:0206e30008c24b
:0206e40008c04c
:0206e50008bf4c
:0206e60008be4c
:0206e70008bc4d
:0206e80008bb4d
:0206e90008ba4d
:0206ea0008b84e
:0206eb0008b74e
:0206ec0008b64e
:0206ed0008b44f
:0206ee0008b34f
:0206ef0008b24f
:0206f00008b14f
:0206f10008af50
:0206f20008ae50
:0206f30008ad50
:0206f40008ac50
:0206f50008aa51
:0206f60008a951
:0206f70008a851
:0206f80008a751
:0206f90008a552
:0206fa0008a452
:0206fb0008a352
:0206fc0008a252
:0206fd0008a053
:0206fe00089f53
:0206ff00089e53
:02070000089d52
:02070100089c52
:02070200089a53
:02070300089953
:02070400089853
:02070500089753
:02070600089653
:02070700089553
:02070800089354
:02070900089254
:02070a00089154
:02070b00089054
:02070c00088f54
:02070d00088e54
:02070e00088c55
:02070f00088b55
:02071000088a55
:02071100088955
:02071200088855
:02071300088755
:02071400088655
:02071500088555
:02071600088356
:02071700088256
:02071800088156
:02071900088056
:02071a00087f56
:02071b00087e56
:02071c00087d56
:02071d00087c56
:02071e00087b56
:02071f00087a56
:02072000087956
:02072100087856
:02072200087756
:02072300087656
:02072400087457
:02072500087357
:02072600087257
:02072700087157
:02072800087057
:02072900086f57
:02072a00086e57
:02072b00086d57
:02072c00086c57
:02072d00086b57
:02072e00086a57
:02072f00086957
:02073000086857
:02073100086757
:02073200086657
:02073300086557
:02073400086457
:02073500086357
:02073600086257
:02073700086256
:02073800086156
:02073900086056
:02073a00085f56
:02073b00085e56
:02073c00085d56
:02073d00085c56
:02073e00085b56
:02073f00085a56
:02074000085956
:02074100085856
:02074200085756
:02074300085656
:02074400085655
:02074500085555
:02074600085455
:02074700085355
:02074800085255
:02074900085155
:02074a00085055
:02074b00084f55
:02074c00084f54
:02074d00084e54
:02074e00084d54
:02074f00084c54
:02075000084b54
:02075100084a54
:02075200084954
:02075300084953
:02075400084853
:02075500084753
:02075600084653
:02075700084553
:02075800084552
:02075900084452
:02075a00084352
:02075b00084252
:02075c00084152
:02075d00084151
:02075e00084051
:02075f00083f51
:02076000083e51
:02076100083e50
:02076200083d50
:02076300083c50
:02076400083b50
:02076500083b4f
:02076600083a4f
:0207670008394f
:0207680008384f
:0207690008384e
:02076a0008374e
:02076b0008364e
:02076c0008364d
:02076d0008354d
:02076e0008344d
:02076f0008334d
:0207700008334c
:0207710008324c
:0207720008314c
:0207730008314b
:0207740008304b
:02077500082f4b
:02077600082f4a
:02077700082e4a
:02077800082d4a
:02077900082d49
:02077a00082c49
:02077b00082b49
:02077c00082b48
:02077d00082a48
:02077e00082a47
:02077f00082947
:02078000082847
:02078100082846
:02078200082746
:02078300082745
:02078400082645
:02078500082545
:02078600082544
:02078700082444
:02078800082443
:02078900082343
:02078a00082243
:02078b00082242
:02078c00082142
:02078d00082141
:02078e00082041
:02078f00082040
:02079000081f40
:02079100081f3f
:02079200081e3f
:02079300081e3e
:02079400081d3e
:02079500081d3d
:02079600081c3d
:02079700081b3d
:02079800081b3c
:02079900081a3c
:02079a00081a3b
:02079b00081a3a
:02079c0008193a
:02079d00081939
:02079e00081839
:02079f00081838
:0207a000081738
:0207a100081737
:0207a200081637
:0207a300081636
:0207a400081536
:0207a500081535
:0207a600081435
:0207a700081434
:0207a800081433
:0207a900081333
:0207aa00081332
:0207ab00081232
:0207ac00081231
:0207ad00081230
:0207ae00081130
:0207af0008112f
:0207b00008102f
:0207b10008102e
:0207b20008102d
:0207b300080f2d
:0207b400080f2c
:0207b500080f2b
:0207b600080e2b
:0207b700080e2a
:0207b800080d2a
:0207b900080d29
:0207ba00080d28
:0207bb00080c28
:0207bc00080c27
:0207bd00080c26
:0207be00080b26
:0207bf00080b25
:0207c000080b24
:0207c100080b23
:0207c200080a23
:0207c300080a22
:0207c400080a21
:0207c500080921
:0207c600080920
:0207c70008091f
:0207c80008091e
:0207c90008081e
:0207ca0008081d
:0207cb0008081c
:0207cc0008081b
:0207cd0008071b
:0207ce0008071a
:0207cf00080719
:0207d000080718
:0207d100080618
:0207d200080617
:0207d300080616
:0207d400080615
:0207d500080515
:0207d600080514
:0207d700080513
:0207d800080512
:0207d900080511
:0207da00080411
:0207db00080410
:0207dc0008040f
:0207dd0008040e
:0207de0008040d
:0207df0008040c
:0207e00008030c
:0207e10008030b
:0207e20008030a
:0207e300080309
:0207e400080308
:0207e500080307
:0207e600080306
:0207e700080305
:0207e800080205
:0207e900080204
:0207ea00080203
:0207eb00080202
:0207ec00080201
:0207ed00080200
:0207ee000802ff
:0207ef000802fe
:0207f0000802fd
:0207f1000802fc
:0207f2000801fc
:0207f3000801fb
:0207f4000801fa
:0207f5000801f9
:0207f6000801f8
:0207f7000801f7
:0207f8000801f6
:0207f9000801f5
:0207fa000801f4
:0207fb000801f3
:0207fc000801f2
:0207fd000801f1
:0207fe000801f0
:0207ff000801ef
:020800000801ed
:020801000801ec
:020802000801eb
:020803000801ea
:020804000801e9
:020805000801e8
:020806000801e7
:020807000801e6
:020808000801e5
:020809000801e4
:02080a000801e3
:02080b000801e2
:02080c000801e1
:02080d000801e0
:02080e000801df
:02080f000802dd
:020810000802dc
:020811000802db
:020812000802da
:020813000802d9
:020814000802d8
:020815000802d7
:020816000802d6
:020817000802d5
:020818000802d4
:020819000803d2
:02081a000803d1
:02081b000803d0
:02081c000803cf
:02081d000803ce
:02081e000803cd
:02081f000803cc
:020820000803cb
:020821000804c9
:020822000804c8
:020823000804c7
:020824000804c6
:020825000804c5
:020826000804c4
:020827000805c2
:020828000805c1
:020829000805c0
:02082a000805bf
:02082b000805be
:02082c000806bc
:02082d000806bb
:02082e000806ba
:02082f000806b9
:020830000807b7
:020831000807b6
:020832000807b5
:020833000807b4
:020834000808b2
:020835000808b1
:020836000808b0
:020837000808af
:020838000809ad
:020839000809ac
:02083a000809ab
:02083b000809aa
:02083c00080aa8
:02083d00080aa7
:02083e00080aa6
:02083f00080ba4
:02084000080ba3
:02084100080ba2
:02084200080ba1
:02084300080c9f
:02084400080c9e
:02084500080c9d
:02084600080d9b
:02084700080d9a
:02084800080d99
:02084900080e97
:02084a00080e96
:02084b00080f94
:02084c00080f93
:02084d00080f92
:02084e00081090
:02084f0008108f
:0208500008108e
:0208510008118c
:0208520008118b
:02085300081289
:02085400081288
:02085500081287
:02085600081385
:02085700081384
:02085800081482
:02085900081481
:02085a00081480
:02085b0008157e
:02085c0008157d
:02085d0008167b
:02085e0008167a
:02085f00081778
:02086000081777
:02086100081875
:02086200081874
:02086300081972
:02086400081971
:02086500081a6f
:02086600081a6e
:02086700081a6d
:02086800081b6b
:02086900081b6a
:02086a00081c68
:02086b00081d66
:02086c00081d65
:02086d00081e63
:02086e00081e62
:02086f00081f60
:02087000081f5f
:0208710008205d
:0208720008205c
:0208730008215a
:02087400082159
:02087500082257
:02087600082256
:02087700082354
:02087800082452
:02087900082451
:02087a0008254f
:02087b0008254e
:02087c0008264c
:02087d0008274a
:02087e00082749
:02087f00082847
:02088000082846
:02088100082944
:02088200082a42
:02088300082a41
:02088400082b3f
:02088500082b3e
:02088600082c3c
:02088700082d3a
:02088800082d39
:02088900082e37
:02088a00082f35
:02088b00082f34
:02088c00083032
:02088d00083130
:02088e0008312f
:02088f0008322d
:0208900008332b
:0208910008332a
:02089200083428
:02089300083526
:02089400083624
:02089500083623
:02089600083721
:0208970008381f
:0208980008381e
:0208990008391c
:02089a00083a1a
:02089b00083b18
:02089c00083b17
:02089d00083c15
:02089e00083d13
:02089f00083e11
:0208a000083e10
:0208a100083f0e
:0208a20008400c
:0208a30008410a
:0208a400084109
:0208a500084207
:0208a600084305
:0208a700084403
:0208a800084501
:0208a900084500
:0208aa000846fe
:0208ab000847fc
:0208ac000848fa
:0208ad000849f8
:0208ae000849f7
:0208af00084af5
:0208b000084bf3
:0208b100084cf1
:0208b200084def
:0208b300084eed
:0208b400084feb
:0208b500084fea
:0208b6000850e8
:0208b7000851e6
:0208b8000852e4
:0208b9000853e2
:0208ba000854e0
:0208bb000855de
:0208bc000856dc
:0208bd000856db
:0208be000857d9
:0208bf000858d7
:0208c0000859d5
:0208c100085ad3
:0208c200085bd1
:0208c300085ccf
:0208c400085dcd
:0208c500085ecb
:0208c600085fc9
:0208c7000860c7
:0208c8000861c5
:0208c9000862c3
:0208ca000862c2
:0208cb000863c0
:0208cc000864be
:0208cd000865bc
:0208ce000866ba
:0208cf000867b8
:0208d0000868b6
:0208d1000869b4
:0208d200086ab2
:0208d300086bb0
:0208d400086cae
:0208d500086dac
:0208d600086eaa
:0208d700086fa8
:0208d8000870a6
:0208d9000871a4
:0208da000872a2
:0208db000873a0
:0208dc0008749e
:0208dd0008769b
:0208de00087799
:0208df00087897
:0208e000087995
:0208e100087a93
:0208e200087b91
:0208e300087c8f
:0208e400087d8d
:0208e500087e8b
:0208e600087f89
:0208e700088087
:0208e800088185
:0208e900088283
:0208ea00088381
:0208eb0008857e
:0208ec0008867c
:0208ed0008877a
:0208ee00088878
:0208ef00088976
:0208f000088a74
:0208f100088b72
:0208f200088c70
:0208f300088e6d
:0208f400088f6b
:0208f500089069
:0208f600089167
:0208f700089265
:0208f800089363
:0208f900089560
:0208fa0008965e
:0208fb0008975c
:0208fc0008985a
:0208fd00089958
:0208fe00089a56
:0208ff00089c53
:02090000089d50
:02090100089e4e
:02090200089f4c
:0209030008a04a
:0209040008a247
:0209050008a345
:0209060008a443
:0209070008a541
:0209080008a73e
:0209090008a83c
:02090a0008a93a
:02090b0008aa38
:02090c0008ac35
:02090d0008ad33
:02090e0008ae31
:02090f0008af2f
:0209100008b12c
:0209110008b22a
:0209120008b328
:0209130008b426
:0209140008b623
:0209150008b721
:0209160008b81f
:0209170008ba1c
:0209180008bb1a
:0209190008bc18
:02091a0008be15
:02091b0008bf13
:02091c0008c011
:02091d0008c20e
:02091e0008c30c
:02091f0008c40a
:0209200008c607
:0209210008c705
:0209220008c803
:0209230008ca00
:0209240008cbfe
:0209250008ccfc
:0209260008cef9
:0209270008cff7
:0209280008d0f5
:0209290008d2f2
:02092a0008d3f0
:02092b0008d5ed
:02092c0008d6eb
:02092d0008d7e9
:02092e0008d9e6
:02092f0008dae4
:0209300008dce1
:0209310008dddf
:0209320008dedd
:0209330008e0da
:0209340008e1d8
:0209350008e3d5
:0209360008e4d3
:0209370008e6d0
:0209380008e7ce
:0209390008e8cc
:02093a0008eac9
:02093b0008ebc7
:02093c0008edc4
:02093d0008eec2
:02093e0008f0bf
:02093f0008f1bd
:0209400008f3ba
:0209410008f4b8
:0209420008f6b5
:0209430008f7b3
:0209440008f9b0
:0209450008faae
:0209460008fcab
:0209470008fda9
:0209480008ffa6
:020949000900a3
:02094a000902a0
:02094b0009039e
:02094c0009059b
:02094d00090699
:02094e00090896
:02094f00090994
:02095000090b91
:02095100090c8f
:02095200090e8c
:02095300091089
:02095400091187
:02095500091384
:02095600091482
:0209570009167f
:0209580009177d
:0209590009197a
:02095a00091b77
:02095b00091c75
:02095c00091e72
:02095d00091f70
:02095e0009216d
:02095f0009236a
:02096000092468
:02096100092665
:02096200092763
:02096300092960
:02096400092b5d
:02096500092c5b
:02096600092e58
:02096700093055
:02096800093153
:02096900093350
:02096a0009354d
:02096b0009364b
:02096c00093848
:02096d00093a45
:02096e00093b43
:02096f00093d40
:02097000093f3d
:0209710009403b
:02097200094238
:02097300094435
:02097400094533
:02097500094730
:0209760009492d
:02097700094a2b
:02097800094c28
:02097900094e25
:02097a00095022
:02097b00095120
:02097c0009531d
:02097d0009551a
:02097e00095717
:02097f00095815
:02098000095a12
:02098100095c0f
:02098200095d0d
:02098300095f0a
:02098400096107
:02098500096304
:02098600096501
:020987000966ff
:020988000968fc
:02098900096af9
:02098a00096cf6
:02098b00096df4
:02098c00096ff1
:02098d000971ee
:02098e000973eb
:02098f000975e8
:020990000976e6
:020991000978e3
:02099200097ae0
:02099300097cdd
:02099400097eda
:02099500097fd8
:020996000981d5
:020997000983d2
:020998000985cf
:020999000987cc
:02099a000989c9
:02099b00098bc6
:02099c00098cc4
:02099d00098ec1
:02099e000990be
:02099f000992bb
:0209a0000994b8
:0209a1000996b5
:0209a2000998b2
:0209a3000999b0
:0209a400099bad
:0209a500099daa
:0209a600099fa7
:0209a70009a1a4
:0209a80009a3a1
:0209a90009a59e
:0209aa0009a79b
:0209ab0009a998
:0209ac0009ab95
:0209ad0009ac93
:0209ae0009ae90
:0209af0009b08d
:0209b00009b28a
:0209b10009b487
:0209b20009b684
:0209b30009b881
:0209b40009ba7e
:0209b50009bc7b
:0209b60009be78
:0209b70009c075
:0209b80009c272
:0209b90009c46f
:0209ba0009c66c
:0209bb0009c869
:0209bc0009ca66
:0209bd0009cc63
:0209be0009ce60
:0209bf0009d05d
:0209c00009d25a
:0209c10009d457
:0209c20009d654
:0209c30009d851
:0209c40009da4e
:0209c50009dc4b
:0209c60009de48
:0209c70009e045
:0209c80009e242
:0209c90009e43f
:0209ca0009e63c
:0209cb0009e839
:0209cc0009ea36
:0209cd0009ec33
:0209ce0009ee30
:0209cf0009f02d
:0209d00009f22a
:0209d10009f427
:0209d20009f624
:0209d30009f821
:0209d40009fa1e
:0209d50009fc1b
:0209d60009fe18
:0209d7000a0014
:0209d8000a0310
:0209d9000a050d
:0209da000a070a
:0209db000a0907
:0209dc000a0b04
:0209dd000a0d01
:0209de000a0ffe
:0209df000a11fb
:0209e0000a13f8
:0209e1000a15f5
:0209e2000a17f2
:0209e3000a1aee
:0209e4000a1ceb
:0209e5000a1ee8
:0209e6000a20e5
:0209e7000a22e2
:0209e8000a24df
:0209e9000a26dc
:0209ea000a29d8
:0209eb000a2bd5
:0209ec000a2dd2
:0209ed000a2fcf
:0209ee000a31cc
:0209ef000a33c9
:0209f0000a35c6
:0209f1000a38c2
:0209f2000a3abf
:0209f3000a3cbc
:0209f4000a3eb9
:0209f5000a40b6
:0209f6000a43b2
:0209f7000a45af
:0209f8000a47ac
:0209f9000a49a9
:0209fa000a4ba6
:0209fb000a4da3
:0209fc000a509f
:0209fd000a529c
:0209fe000a5499
:0209ff000a5696
:020a00000a5991
:020a01000a5b8e
:020a02000a5d8b
:020a03000a5f88
:020a04000a6185
:020a05000a6481
:020a06000a667e
:020a07000a687b
:020a08000a6a78
:020a09000a6d74
:020a0a000a6f71
:020a0b000a716e
:020a0c000a736b
:020a0d000a7667
:020a0e000a7864
:020a0f000a7a61
:020a10000a7d5d
:020a11000a7f5a
:020a12000a8157
:020a13000a8354
:020a14000a8650
:020a15000a884d
:020a16000a8a4a
:020a17000a8d46
:020a18000a8f43
:020a19000a9140
:020a1a000a933d
:020a1b000a9639
:020a1c000a9836
:020a1d000a9a33
:020a1e000a9d2f
:020a1f000a9f2c
:020a20000aa129
:020a21000aa425
:020a22000aa622
:020a23000aa81f
:020a24000aab1b
:020a25000aad18
:020a26000aaf15
:020a27000ab211
:020a28000ab40e
:020a29000ab60b
:020a2a000ab907
:020a2b000abb04
:020a2c000abd01
:020a2d000ac0fd
:020a2e000ac2fa
:020a2f000ac5f6
:020a30000ac7f3
:020a31000ac9f0
:020a32000accec
:020a33000acee9
:020a34000ad0e6
:020a35000ad3e2
:020a36000ad5df
:020a37000ad8db
:020a38000adad8
:020a39000adcd5
:020a3a000adfd1
:020a3b000ae1ce
:020a3c000ae4ca
:020a3d000ae6c7
:020a3e000ae9c3
:020a3f000aebc0
:020a40000aedbd
:020a41000af0b9
:020a42000af2b6
:020a43000af5b2
:020a44000af7af
:020a45000afaab
:020a46000afca8
:020a47000afea5
:020a48000b01a0
:020a49000b039d
:020a4a000b0699
:020a4b000b0896
:020a4c000b0b92
:020a4d000b0d8f
:020a4e000b108b
:020a4f000b1288
:020a50000b1584
:020a51000b1781
:020a52000b1a7d
:020a53000b1c7a
:020a54000b1f76
:020a55000b2173
:020a56000b246f
:020a57000b266c
:020a58000b2968
:020a59000b2b65
:020a5a000b2e61
:020a5b000b305e
:020a5c000b335a
:020a5d000b3557
:020a5e000b3853
:020a5f000b3a50
:020a60000b3d4c
:020a61000b3f49
:020a62000b4245
:020a63000b4442
:020a64000b473e
:020a65000b493b
:020a66000b4c37
:020a67000b4e34
:020a68000b5130
:020a69000b532d
:020a6a000b5629
:020a6b000b5925
:020a6c000b5b22
:020a6d000b5e1e
:020a6e000b601b
:020a6f000b6317
:020a70000b6514
:020a71000b6810
:020a72000b6a0d
:020a73000b6d09
:020a74000b7005
:020a75000b7202
:020a76000b75fe
:020a77000b77fb
:020a78000b7af7
:020a79000b7df3
:020a7a000b7ff0
:020a7b000b82ec
:020a7c000b84e9
:020a7d000b87e5
:020a7e000b8ae1
:020a7f000b8cde
:020a80000b8fda
:020a81000b91d7
:020a82000b94d3
:020a83000b97cf
:020a84000b99cc
:020a85000b9cc8
:020a86000b9ec5
:020a87000ba1c1
:020a88000ba4bd
:020a89000ba6ba
:020a8a000ba9b6
:020a8b000bacb2
:020a8c000baeaf
:020a8d000bb1ab
:020a8e000bb4a7
:020a8f000bb6a4
:020a90000bb9a0
:020a91000bbc9c
:020a92000bbe99
:020a93000bc195
:020a94000bc392
:020a95000bc68e
:020a96000bc98a
:020a97000bcb87
:020a98000bce83
:020a99000bd17f
:020a9a000bd47b
:020a9b000bd678
:020a9c000bd974
:020a9d000bdc70
:020a9e000bde6d
:020a9f000be169
:020aa0000be465
:020aa1000be662
:020aa2000be95e
:020aa3000bec5a
:020aa4000bee57
:020aa5000bf153
:020aa6000bf44f
:020aa7000bf74b
:020aa8000bf948
:020aa9000bfc44
:020aaa000bff40
:020aab000c013c
:020aac000c0438
:020aad000c0734
:020aae000c0a30
:020aaf000c0c2d
:020ab0000c0f29
:020ab1000c1225
:020ab2000c1521
:020ab3000c171e
:020ab4000c1a1a
:020ab5000c1d16
:020ab6000c1f13
:020ab7000c220f
:020ab8000c250b
:020ab9000c2807
:020aba000c2a04
:020abb000c2d00
:020abc000c30fc
:020abd000c33f8
:020abe000c36f4
:020abf000c38f1
:020ac0000c3bed
:020ac1000c3ee9
:020ac2000c41e5
:020ac3000c43e2
:020ac4000c46de
:020ac5000c49da
:020ac6000c4cd6
:020ac7000c4ed3
:020ac8000c51cf
:020ac9000c54cb
:020aca000c57c7
:020acb000c5ac3
:020acc000c5cc0
:020acd000c5fbc
:020ace000c62b8
:020acf000c65b4
:020ad0000c68b0
:020ad1000c6aad
:020ad2000c6da9
:020ad3000c70a5
:020ad4000c73a1
:020ad5000c769d
:020ad6000c7999
:020ad7000c7b96
:020ad8000c7e92
:020ad9000c818e
:020ada000c848a
:020adb000c8786
:020adc000c8983
:020add000c8c7f
:020ade000c8f7b
:020adf000c9277
:020ae0000c9573
:020ae1000c986f
:020ae2000c9a6c
:020ae3000c9d68
:020ae4000ca064
:020ae5000ca360
:020ae6000ca65c
:020ae7000ca958
:020ae8000cac54
:020ae9000cae51
:020aea000cb14d
:020aeb000cb449
:020aec000cb745
:020aed000cba41
:020aee000cbd3d
:020aef000cc039
:020af0000cc236
:020af1000cc532
:020af2000cc82e
:020af3000ccb2a
:020af4000cce26
:020af5000cd122
:020af6000cd41e
:020af7000cd71a
:020af8000cd917
:020af9000cdc13
:020afa000cdf0f
:020afb000ce20b
:020afc000ce507
:020afd000ce803
:020afe000cebff
:020aff000ceefb
:020b00000cf1f6
:020b01000cf4f2
:020b02000cf6ef
:020b03000cf9eb
:020b04000cfce7
:020b05000cffe3
:020b06000d02de
:020b07000d05da
:020b08000d08d6
:020b09000d0bd2
:020b0a000d0ece
:020b0b000d11ca
:020b0c000d14c6
:020b0d000d17c2
:020b0e000d19bf
:020b0f000d1cbb
:020b10000d1fb7
:020b11000d22b3
:020b12000d25af
:020b13000d28ab
:020b14000d2ba7
:020b15000d2ea3
:020b16000d319f
:020b17000d349b
:020b18000d3797
:020b19000d3a93
:020b1a000d3d8f
:020b1b000d408b
:020b1c000d4387
:020b1d000d4683
:020b1e000d4880
:020b1f000d4b7c
:020b20000d4e78
:020b21000d5174
:020b22000d5470
:020b23000d576c
:020b24000d5a68
:020b25000d5d64
:020b26000d6060
:020b27000d635c
:020b28000d6658
:020b29000d6954
:020b2a000d6c50
:020b2b000d6f4c
:020b2c000d7248
:020b2d000d7544
:020b2e000d7840
:020b2f000d7b3c
:020b30000d7e38
:020b31000d8134
:020b32000d8430
:020b33000d872c
:020b34000d8a28
:020b35000d8d24
:020b36000d9020
:020b37000d931c
:020b38000d9618
:020b39000d9914
:020b3a000d9c10
:020b3b000d9f0c
:020b3c000da208
:020b3d000da504
:020b3e000da800
:020b3f000dabfc
:020b40000daef8
:020b41000db1f4
:020b42000db4f0
:020b43000db7ec
:020b44000dbae8
:020b45000dbde4
:020b46000dc0e0
:020b47000dc3dc
:020b48000dc6d8
:020b49000dc9d4
:020b4a000dccd0
:020b4b000dcfcc
:020b4c000dd2c8
:020b4d000dd5c4
:020b4e000dd8c0
:020b4f000ddbbc
:020b50000ddeb8
:020b51000de1b4
:020b52000de4b0
:020b53000de7ac
:020b54000deaa8
:020b55000deda4
:020b56000df0a0
:020b57000df39c
:020b58000df698
:020b59000df994
:020b5a000dfc90
:020b5b000dff8c
:020b5c000e0287
:020b5d000e0583
:020b5e000e097e
:020b5f000e0c7a
:020b60000e0f76
:020b61000e1272
:020b62000e156e
:020b63000e186a
:020b64000e1b66
:020b65000e1e62
:020b66000e215e
:020b67000e245a
:020b68000e2756
:020b69000e2a52
:020b6a000e2d4e
:020b6b000e304a
:020b6c000e3346
:020b6d000e3642
:020b6e000e393e
:020b6f000e3c3a
:020b70000e3f36
:020b71000e4331
:020b72000e462d
:020b73000e4929
:020b74000e4c25
:020b75000e4f21
:020b76000e521d
:020b77000e5519
:020b78000e5815
:020b79000e5b11
:020b7a000e5e0d
:020b7b000e6109
:020b7c000e6405
:020b7d000e6701
:020b7e000e6afd
:020b7f000e6ef8
:020b80000e71f4
:020b81000e74f0
:020b82000e77ec
:020b83000e7ae8
:020b84000e7de4
:020b85000e80e0
:020b86000e83dc
:020b87000e86d8
:020b88000e89d4
:020b89000e8cd0
:020b8a000e8fcc
:020b8b000e93c7
:020b8c000e96c3
:020b8d000e99bf
:020b8e000e9cbb
:020b8f000e9fb7
:020b90000ea2b3
:020b91000ea5af
:020b92000ea8ab
:020b93000eaba7
:020b94000eaea3
:020b95000eb29e
:020b96000eb59a
:020b97000eb896
:020b98000ebb92
:020b99000ebe8e
:020b9a000ec18a
:020b9b000ec486
:020b9c000ec782
:020b9d000eca7e
:020b9e000ecd7a
:020b9f000ed175
:020ba0000ed471
:020ba1000ed76d
:020ba2000eda69
:020ba3000edd65
:020ba4000ee061
:020ba5000ee35d
:020ba6000ee659
:020ba7000ee955
:020ba8000eed50
:020ba9000ef04c
:020baa000ef348
:020bab000ef644
:020bac000ef940
:020bad000efc3c
:020bae000eff38
:020baf000f0233
:020bb0000f052f
:020bb1000f092a
:020bb2000f0c26
:020bb3000f0f22
:020bb4000f121e
:020bb5000f151a
:020bb6000f1816
:020bb7000f1b12
:020bb8000f1e0e
:020bb9000f210a
:020bba000f2505
:020bbb000f2801
:020bbc000f2bfd
:020bbd000f2ef9
:020bbe000f31f5
:020bbf000f34f1
:020bc0000f37ed
:020bc1000f3ae9
:020bc2000f3ee4
:020bc3000f41e0
:020bc4000f44dc
:020bc5000f47d8
:020bc6000f4ad4
:020bc7000f4dd0
:020bc8000f50cc
:020bc9000f54c7
:020bca000f57c3
:020bcb000f5abf
:020bcc000f5dbb
:020bcd000f60b7
:020bce000f63b3
:020bcf000f66af
:020bd0000f69ab
:020bd1000f6da6
:020bd2000f70a2
:020bd3000f739e
:020bd4000f769a
:020bd5000f7996
:020bd6000f7c92
:020bd7000f7f8e
:020bd8000f828a
:020bd9000f8685
:020bda000f8981
:020bdb000f8c7d
:020bdc000f8f79
:020bdd000f9275
:020bde000f9571
:020bdf000f986d
:020be0000f9c68
:020be1000f9f64
:020be2000fa260
:020be3000fa55c
:020be4000fa858
:020be5000fab54
:020be6000fae50
:020be7000fb24b
:020be8000fb547
:020be9000fb843
:020bea000fbb3f
:020beb000fbe3b
:020bec000fc137
:020bed000fc433
:020bee000fc72f
:020bef000fcb2a
:020bf0000fce26
:020bf1000fd122
:020bf2000fd41e
:020bf3000fd71a
:020bf4000fda16
:020bf5000fdd12
:020bf6000fe10d
:020bf7000fe409
:020bf8000fe705
:020bf9000fea01
:020bfa000fedfd
:020bfb000ff0f9
:020bfc000ff3f5
:020bfd000ff7f0
:020bfe000ffaec
:020bff000ffde8
:020c00000000f2
:020c01000003ee
:020c02000006ea
:020c03000009e6
:020c0400000de1
:020c05000010dd
:020c06000013d9
:020c07000016d5
:020c08000019d1
:020c0900001ccd
:020c0a00001fc9
:020c0b000023c4
:020c0c000026c0
:020c0d000029bc
:020c0e00002cb8
:020c0f00002fb4
:020c10000032b0
:020c11000035ac
:020c12000039a7
:020c1300003ca3
:020c1400003f9f
:020c150000429b
:020c1600004597
:020c1700004893
:020c1800004b8f
:020c1900004e8b
:020c1a00005286
:020c1b00005582
:020c1c0000587e
:020c1d00005b7a
:020c1e00005e76
:020c1f00006172
:020c200000646e
:020c2100006869
:020c2200006b65
:020c2300006e61
:020c240000715d
:020c2500007459
:020c2600007755
:020c2700007a51
:020c2800007e4c
:020c2900008148
:020c2a00008444
:020c2b00008740
:020c2c00008a3c
:020c2d00008d38
:020c2e00009034
:020c2f00009330
:020c300000972b
:020c3100009a27
:020c3200009d23
:020c330000a01f
:020c340000a31b
:020c350000a617
:020c360000a913
:020c370000ac0f
:020c380000b00a
:020c390000b306
:020c3a0000b602
:020c3b0000b9fe
:020c3c0000bcfa
:020c3d0000bff6
:020c3e0000c2f2
:020c3f0000c6ed
:020c400000c9e9
:020c410000cce5
:020c420000cfe1
:020c430000d2dd
:020c440000d5d9
:020c450000d8d5
:020c460000dbd1
:020c470000dfcc
:020c480000e2c8
:020c490000e5c4
:020c4a0000e8c0
:020c4b0000ebbc
:020c4c0000eeb8
:020c4d0000f1b4
:020c4e0000f4b0
:020c4f0000f7ac
:020c500000fba7
:020c510000fea3
:020c520001019e
:020c530001049a
:020c5400010796
:020c5500010a92
:020c5600010d8e
:020c570001108a
:020c5800011386
:020c5900011781
:020c5a00011a7d
:020c5b00011d79
:020c5c00012075
:020c5d00012371
:020c5e0001266d
:020c5f00012969
:020c6000012c65
:020c6100012f61
:020c620001335c
:020c6300013658
:020c6400013954
:020c6500013c50
:020c6600013f4c
:020c6700014248
:020c6800014544
:020c6900014840
:020c6a00014b3c
:020c6b00014e38
:020c6c00015233
:020c6d0001552f
:020c6e0001582b
:020c6f00015b27
:020c7000015e23
:020c710001611f
:020c720001641b
:020c7300016717
:020c7400016a13
:020c7500016d0f
:020c760001710a
:020c7700017406
:020c7800017702
:020c7900017afe
:020c7a00017dfa
:020c7b000180f6
:020c7c000183f2
:020c7d000186ee
:020c7e000189ea
:020c7f00018ce6
:020c8000018fe2
:020c81000192de
:020c82000196d9
:020c83000199d5
:020c8400019cd1
:020c8500019fcd
:020c860001a2c9
:020c870001a5c5
:020c880001a8c1
:020c890001abbd
:020c8a0001aeb9
:020c8b0001b1b5
:020c8c0001b4b1
:020c8d0001b7ad
:020c8e0001baa9
:020c8f0001bda5
:020c900001c1a0
:020c910001c49c
:020c920001c798
:020c930001ca94
:020c940001cd90
:020c950001d08c
:020c960001d388
:020c970001d684
:020c980001d980
:020c990001dc7c
:020c9a0001df78
:020c9b0001e274
:020c9c0001e570
:020c9d0001e86c
:020c9e0001eb68
:020c9f0001ee64
:020ca00001f160
:020ca10001f45c
:020ca20001f758
:020ca30001fb53
:020ca40001fe4f
:020ca50002014a
:020ca600020446
:020ca700020742
:020ca800020a3e
:020ca900020d3a
:020caa00021036
:020cab00021332
:020cac0002162e
:020cad0002192a
:020cae00021c26
:020caf00021f22
:020cb00002221e
:020cb10002251a
:020cb200022816
:020cb300022b12
:020cb400022e0e
:020cb50002310a
:020cb600023406
:020cb700023702
:020cb800023afe
:020cb900023dfa
:020cba000240f6
:020cbb000243f2
:020cbc000246ee
:020cbd000249ea
:020cbe00024ce6
:020cbf00024fe2
:020cc0000252de
:020cc1000255da
:020cc2000258d6
:020cc300025bd2
:020cc400025ece
:020cc5000261ca
:020cc6000264c6
:020cc7000267c2
:020cc800026abe
:020cc900026dba
:020cca000270b6
:020ccb000273b2
:020ccc000276ae
:020ccd000279aa
:020cce00027ca6
:020ccf00027fa2
:020cd00002829e
:020cd10002859a
:020cd200028896
:020cd300028b92
:020cd400028e8e
:020cd50002918a
:020cd600029486
:020cd700029782
:020cd800029a7e
:020cd900029d7a
:020cda0002a076
:020cdb0002a372
:020cdc0002a66e
:020cdd0002a96a
:020cde0002ac66
:020cdf0002af62
:020ce00002b25e
:020ce10002b55a
:020ce20002b856
:020ce30002ba53
:020ce40002bd4f
:020ce50002c04b
:020ce60002c347
:020ce70002c643
:020ce80002c93f
:020ce90002cc3b
:020cea0002cf37
:020ceb0002d233
:020cec0002d52f
:020ced0002d82b
:020cee0002db27
:020cef0002de23
:020cf00002e11f
:020cf10002e41b
:020cf20002e717
:020cf30002e914
:020cf40002ec10
:020cf50002ef0c
:020cf60002f208
:020cf70002f504
:020cf80002f800
:020cf90002fbfc
:020cfa0002fef8
:020cfb000301f3
:020cfc000304ef
:020cfd000307eb
:020cfe00030ae7
:020cff00030ce4
:020d0000030fdf
:020d01000312db
:020d02000315d7
:020d03000318d3
:020d0400031bcf
:020d0500031ecb
:020d06000321c7
:020d07000324c3
:020d08000327bf
:020d09000329bc
:020d0a00032cb8
:020d0b00032fb4
:020d0c000332b0
:020d0d000335ac
:020d0e000338a8
:020d0f00033ba4
:020d1000033ea0
:020d110003409d
:020d1200034399
:020d1300034695
:020d1400034991
:020d1500034c8d
:020d1600034f89
:020d1700035285
:020d1800035482
:020d190003577e
:020d1a00035a7a
:020d1b00035d76
:020d1c00036072
:020d1d0003636e
:020d1e0003666a
:020d1f00036867
:020d2000036b63
:020d2100036e5f
:020d220003715b
:020d2300037457
:020d2400037753
:020d2500037950
:020d2600037c4c
:020d2700037f48
:020d2800038244
:020d2900038540
:020d2a0003873d
:020d2b00038a39
:020d2c00038d35
:020d2d00039031
:020d2e0003932d
:020d2f00039629
:020d3000039826
:020d3100039b22
:020d3200039e1e
:020d330003a11a
:020d340003a416
:020d350003a613
:020d360003a90f
:020d370003ac0b
:020d380003af07
:020d390003b203
:020d3a0003b400
:020d3b0003b7fc
:020d3c0003baf8
:020d3d0003bdf4
:020d3e0003bff1
:020d3f0003c2ed
:020d400003c5e9
:020d410003c8e5
:020d420003cae2
:020d430003cdde
:020d440003d0da
:020d450003d3d6
:020d460003d6d2
:020d470003d8cf
:020d480003dbcb
:020d490003dec7
:020d4a0003e1c3
:020d4b0003e3c0
:020d4c0003e6bc
:020d4d0003e9b8
:020d4e0003ebb5
:020d4f0003eeb1
:020d500003f1ad
:020d510003f4a9
:020d520003f6a6
:020d530003f9a2
:020d540003fc9e
:020d550003ff9a
:020d5600040196
:020d5700040492
:020d580004078e
:020d590004098b
:020d5a00040c87
:020d5b00040f83
:020d5c0004127f
:020d5d0004147c
:020d5e00041778
:020d5f00041a74
:020d6000041c71
:020d6100041f6d
:020d6200042269
:020d6300042466
:020d6400042762
:020d6500042a5e
:020d6600042c5b
:020d6700042f57
:020d6800043253
:020d690004354f
:020d6a0004374c
:020d6b00043a48
:020d6c00043d44
:020d6d00043f41
:020d6e0004423d
:020d6f0004443a
:020d7000044736
:020d7100044a32
:020d7200044c2f
:020d7300044f2b
:020d7400045227
:020d7500045424
:020d7600045720
:020d7700045a1c
:020d7800045c19
:020d7900045f15
:020d7a00046211
:020d7b0004640e
:020d7c0004670a
:020d7d00046907
:020d7e00046c03
:020d7f00046fff
:020d80000471fc
:020d81000474f8
:020d82000476f5
:020d83000479f1
:020d8400047ced
:020d8500047eea
:020d86000481e6
:020d87000483e3
:020d88000486df
:020d89000489db
:020d8a00048bd8
:020d8b00048ed4
:020d8c000490d1
:020d8d000493cd
:020d8e000496c9
:020d8f000498c6
:020d9000049bc2
:020d9100049dbf
:020d920004a0bb
:020d930004a2b8
:020d940004a5b4
:020d950004a7b1
:020d960004aaad
:020d970004ada9
:020d980004afa6
:020d990004b2a2
:020d9a0004b49f
:020d9b0004b79b
:020d9c0004b998
:020d9d0004bc94
:020d9e0004be91
:020d9f0004c18d
:020da00004c38a
:020da10004c686
:020da20004c883
:020da30004cb7f
:020da40004cd7c
:020da50004d078
:020da60004d275
:020da70004d571
:020da80004d76e
:020da90004da6a
:020daa0004dc67
:020dab0004df63
:020dac0004e160
:020dad0004e45c
:020dae0004e659
:020daf0004e955
:020db00004eb52
:020db10004ee4e
:020db20004f04b
:020db30004f347
:020db40004f544
:020db50004f840
:020db60004fa3d
:020db70004fd39
:020db80004ff36
:020db900050231
:020dba0005042e
:020dbb0005062b
:020dbc00050927
:020dbd00050b24
:020dbe00050e20
:020dbf0005101d
:020dc000051319
:020dc100051516
:020dc200051713
:020dc300051a0f
:020dc400051c0c
:020dc500051f08
:020dc600052105
:020dc700052401
:020dc8000526fe
:020dc9000528fb
:020dca00052bf7
:020dcb00052df4
:020dcc000530f0
:020dcd000532ed
:020dce000534ea
:020dcf000537e6
:020dd0000539e3
:020dd100053be0
:020dd200053edc
:020dd3000540d9
:020dd4000543d5
:020dd5000545d2
:020dd6000547cf
:020dd700054acb
:020dd800054cc8
:020dd900054ec5
:020dda000551c1
:020ddb000553be
:020ddc000555bb
:020ddd000558b7
:020dde00055ab4
:020ddf00055cb1
:020de000055fad
:020de1000561aa
:020de2000563a7
:020de3000566a3
:020de4000568a0
:020de500056a9d
:020de600056d99
:020de700056f96
:020de800057193
:020de900057390
:020dea0005768c
:020deb00057889
:020dec00057a86
:020ded00057d82
:020dee00057f7f
:020def0005817c
:020df000058379
:020df100058675
:020df200058872
:020df300058a6f
:020df400058d6b
:020df500058f68
:020df600059165
:020df700059362
:020df80005965e
:020df90005985b
:020dfa00059a58
:020dfb00059c55
:020dfc00059f51
:020dfd0005a14e
:020dfe0005a34b
:020dff0005a548
:020e000005a744
:020e010005aa40
:020e020005ac3d
:020e030005ae3a
:020e040005b037
:020e050005b333
:020e060005b530
:020e070005b72d
:020e080005b92a
:020e090005bb27
:020e0a0005bd24
:020e0b0005c020
:020e0c0005c21d
:020e0d0005c41a
:020e0e0005c617
:020e0f0005c814
:020e100005cb10
:020e110005cd0d
:020e120005cf0a
:020e130005d107
:020e140005d304
:020e150005d501
:020e160005d7fe
:020e170005dafa
:020e180005dcf7
:020e190005def4
:020e1a0005e0f1
:020e1b0005e2ee
:020e1c0005e4eb
:020e1d0005e6e8
:020e1e0005e9e4
:020e1f0005ebe1
:020e200005edde
:020e210005efdb
:020e220005f1d8
:020e230005f3d5
:020e240005f5d2
:020e250005f7cf
:020e260005f9cc
:020e270005fbc9
:020e280005fdc6
:020e29000600c1
:020e2a000602be
:020e2b000604bb
:020e2c000606b8
:020e2d000608b5
:020e2e00060ab2
:020e2f00060caf
:020e3000060eac
:020e31000610a9
:020e32000612a6
:020e33000614a3
:020e34000616a0
:020e350006189d
:020e3600061a9a
:020e3700061c97
:020e3800061e94
:020e3900062091
:020e3a0006228e
:020e3b0006248b
:020e3c00062688
:020e3d00062885
:020e3e00062a82
:020e3f00062c7f
:020e4000062e7c
:020e4100063079
:020e4200063276
:020e4300063473
:020e4400063670
:020e450006386d
:020e4600063a6a
:020e4700063c67
:020e4800063e64
:020e4900064061
:020e4a0006425e
:020e4b0006445b
:020e4c00064658
:020e4d00064855
:020e4e00064a52
:020e4f00064c4f
:020e5000064e4c
:020e5100065049
:020e5200065246
:020e5300065443
:020e5400065541
:020e550006573e
:020e560006593b
:020e5700065b38
:020e5800065d35
:020e5900065f32
:020e5a0006612f
:020e5b0006632c
:020e5c00066529
:020e5d00066726
:020e5e00066824
:020e5f00066a21
:020e6000066c1e
:020e6100066e1b
:020e6200067018
:020e6300067215
:020e6400067412
:020e6500067510
:020e660006770d
:020e670006790a
:020e6800067b07
:020e6900067d04
:020e6a00067f01
:020e6b000681fe
:020e6c000682fc
:020e6d000684f9
:020e6e000686f6
:020e6f000688f3
:020e7000068af0
:020e7100068bee
:020e7200068deb
:020e7300068fe8
:020e74000691e5
:020e75000693e2
:020e76000694e0
:020e77000696dd
:020e78000698da
:020e7900069ad7
:020e7a00069bd5
:020e7b00069dd2
:020e7c00069fcf
:020e7d0006a1cc
:020e7e0006a3c9
:020e7f0006a4c7
:020e800006a6c4
:020e810006a8c1
:020e820006a9bf
:020e830006abbc
:020e840006adb9
:020e850006afb6
:020e860006b0b4
:020e870006b2b1
:020e880006b4ae
:020e890006b6ab
:020e8a0006b7a9
:020e8b0006b9a6
:020e8c0006bba3
:020e8d0006bca1
:020e8e0006be9e
:020e8f0006c09b
:020e900006c199
:020e910006c396
:020e920006c593
:020e930006c691
:020e940006c88e
:020e950006ca8b
:020e960006cb89
:020e970006cd86
:020e980006cf83
:020e990006d081
:020e9a0006d27e
:020e9b0006d47b
:020e9c0006d579
:020e9d0006d776
:020e9e0006d973
:020e9f0006da71
:020ea00006dc6e
:020ea10006dd6c
:020ea20006df69
:020ea30006e166
:020ea40006e264
:020ea50006e461
:020ea60006e55f
:020ea70006e75c
:020ea80006e959
:020ea90006ea57
:020eaa0006ec54
:020eab0006ed52
:020eac0006ef4f
:020ead0006f04d
:020eae0006f24a
:020eaf0006f447
:020eb00006f545
:020eb10006f742
:020eb20006f840
:020eb30006fa3d
:020eb40006fb3b
:020eb50006fd38
:020eb60006fe36
:020eb700070032
:020eb800070130
:020eb90007032d
:020eba0007042b
:020ebb00070628
:020ebc00070726
:020ebd00070923
:020ebe00070a21
:020ebf00070c1e
:020ec000070d1c
:020ec100070f19
:020ec200071017
:020ec300071214
:020ec400071312
:020ec50007150f
:020ec60007160d
:020ec70007180a
:020ec800071908
:020ec900071a06
:020eca00071c03
:020ecb00071d01
:020ecc00071ffe
:020ecd000720fc
:020ece000722f9
:020ecf000723f7
:020ed0000724f5
:020ed1000726f2
:020ed2000727f0
:020ed3000729ed
:020ed400072aeb
:020ed500072be9
:020ed600072de6
:020ed700072ee4
:020ed8000730e1
:020ed9000731df
:020eda000732dd
:020edb000734da
:020edc000735d8
:020edd000736d6
:020ede000738d3
:020edf000739d1
:020ee000073acf
:020ee100073ccc
:020ee200073dca
:020ee300073ec8
:020ee4000740c5
:020ee5000741c3
:020ee6000742c1
:020ee7000744be
:020ee8000745bc
:020ee9000746ba
:020eea000748b7
:020eeb000749b5
:020eec00074ab3
:020eed00074cb0
:020eee00074dae
:020eef00074eac
:020ef000074faa
:020ef1000751a7
:020ef2000752a5
:020ef3000753a3
:020ef4000754a1
:020ef50007569e
:020ef60007579c
:020ef70007589a
:020ef800075998
:020ef900075b95
:020efa00075c93
:020efb00075d91
:020efc00075e8f
:020efd0007608c
:020efe0007618a
:020eff00076288
:020f0000076385
:020f0100076483
:020f0200076680
:020f030007677e
:020f040007687c
:020f050007697a
:020f0600076a78
:020f0700076b76
:020f0800076d73
:020f0900076e71
:020f0a00076f6f
:020f0b0007706d
:020f0c0007716b
:020f0d00077269
:020f0e00077466
:020f0f00077564
:020f1000077662
:020f1100077760
:020f120007785e
:020f130007795c
:020f1400077a5a
:020f1500077b58
:020f1600077d55
:020f1700077e53
:020f1800077f51
:020f190007804f
:020f1a0007814d
:020f1b0007824b
:020f1c00078349
:020f1d00078447
:020f1e00078545
:020f1f00078643
:020f2000078741
:020f210007883f
:020f220007893d
:020f2300078a3b
:020f2400078c38
:020f2500078d36
:020f2600078e34
:020f2700078f32
:020f2800079030
:020f290007912e
:020f2a0007922c
:020f2b0007932a
:020f2c00079428
:020f2d00079526
:020f2e00079624
:020f2f00079722
:020f3000079820
:020f310007991e
:020f3200079a1c
:020f3300079b1a
:020f3400079c18
:020f3500079d16
:020f3600079e14
:020f3700079e13
:020f3800079f11
:020f390007a00f
:020f3a0007a10d
:020f3b0007a20b
:020f3c0007a309
:020f3d0007a407
:020f3e0007a505
:020f3f0007a603
:020f400007a701
:020f410007a8ff
:020f420007a9fd
:020f430007aafb
:020f440007aafa
:020f450007abf8
:020f460007acf6
:020f470007adf4
:020f480007aef2
:020f490007aff0
:020f4a0007b0ee
:020f4b0007b1ec
:020f4c0007b1eb
:020f4d0007b2e9
:020f4e0007b3e7
:020f4f0007b4e5
:020f500007b5e3
:020f510007b6e1
:020f520007b7df
:020f530007b7de
:020f540007b8dc
:020f550007b9da
:020f560007bad8
:020f570007bbd6
:020f580007bbd5
:020f590007bcd3
:020f5a0007bdd1
:020f5b0007becf
:020f5c0007bfcd
:020f5d0007bfcc
:020f5e0007c0ca
:020f5f0007c1c8
:020f600007c2c6
:020f610007c2c5
:020f620007c3c3
:020f630007c4c1
:020f640007c5bf
:020f650007c5be
:020f660007c6bc
:020f670007c7ba
:020f680007c8b8
:020f690007c8b7
:020f6a0007c9b5
:020f6b0007cab3
:020f6c0007cab2
:020f6d0007cbb0
:020f6e0007ccae
:020f6f0007cdac
:020f700007cdab
:020f710007cea9
:020f720007cfa7
:020f730007cfa6
:020f740007d0a4
:020f750007d1a2
:020f760007d1a1
:020f770007d29f
:020f780007d39d
:020f790007d39c
:020f7a0007d49a
:020f7b0007d598
:020f7c0007d597
:020f7d0007d695
:020f7e0007d694
:020f7f0007d792
:020f800007d890
:020f810007d88f
:020f820007d98d
:020f830007d98c
:020f840007da8a
:020f850007db88
:020f860007db87
:020f870007dc85
:020f880007dc84
:020f890007dd82
:020f8a0007de80
:020f8b0007de7f
:020f8c0007df7d
:020f8d0007df7c
:020f8e0007e07a
:020f8f0007e079
:020f900007e177
:020f910007e176
:020f920007e274
:020f930007e273
:020f940007e371
:020f950007e370
:020f960007e46e
:020f970007e56c
:020f980007e56b
:020f990007e669
:020f9a0007e668
:020f9b0007e667
:020f9c0007e765
:020f9d0007e764
:020f9e0007e862
:020f9f0007e861
